{
  "_format": "hh-sol-artifact-1",
  "contractName": "V3Migrator",
  "sourceName": "contracts/V3Migrator.sol",
  "abi": [
    {
      "inputs": [
        {
          "internalType": "address",
          "name": "_factory",
          "type": "address"
        },
        {
          "internalType": "address",
          "name": "_WETH9",
          "type": "address"
        },
        {
          "internalType": "address",
          "name": "_nonfungiblePositionManager",
          "type": "address"
        }
      ],
      "stateMutability": "nonpayable",
      "type": "constructor"
    },
    {
      "inputs": [],
      "name": "WETH9",
      "outputs": [
        {
          "internalType": "address",
          "name": "",
          "type": "address"
        }
      ],
      "stateMutability": "view",
      "type": "function"
    },
    {
      "inputs": [
        {
          "internalType": "address",
          "name": "token0",
          "type": "address"
        },
        {
          "internalType": "address",
          "name": "token1",
          "type": "address"
        },
        {
          "internalType": "uint24",
          "name": "fee",
          "type": "uint24"
        },
        {
          "internalType": "uint160",
          "name": "sqrtPriceX96",
          "type": "uint160"
        }
      ],
      "name": "createAndInitializePoolIfNecessary",
      "outputs": [
        {
          "internalType": "address",
          "name": "pool",
          "type": "address"
        }
      ],
      "stateMutability": "payable",
      "type": "function"
    },
    {
      "inputs": [],
      "name": "factory",
      "outputs": [
        {
          "internalType": "address",
          "name": "",
          "type": "address"
        }
      ],
      "stateMutability": "view",
      "type": "function"
    },
    {
      "inputs": [
        {
          "components": [
            {
              "internalType": "address",
              "name": "pair",
              "type": "address"
            },
            {
              "internalType": "uint256",
              "name": "liquidityToMigrate",
              "type": "uint256"
            },
            {
              "internalType": "uint8",
              "name": "percentageToMigrate",
              "type": "uint8"
            },
            {
              "internalType": "address",
              "name": "token0",
              "type": "address"
            },
            {
              "internalType": "address",
              "name": "token1",
              "type": "address"
            },
            {
              "internalType": "uint24",
              "name": "fee",
              "type": "uint24"
            },
            {
              "internalType": "int24",
              "name": "tickLower",
              "type": "int24"
            },
            {
              "internalType": "int24",
              "name": "tickUpper",
              "type": "int24"
            },
            {
              "internalType": "uint256",
              "name": "amount0Min",
              "type": "uint256"
            },
            {
              "internalType": "uint256",
              "name": "amount1Min",
              "type": "uint256"
            },
            {
              "internalType": "address",
              "name": "recipient",
              "type": "address"
            },
            {
              "internalType": "uint256",
              "name": "deadline",
              "type": "uint256"
            },
            {
              "internalType": "bool",
              "name": "refundAsETH",
              "type": "bool"
            }
          ],
          "internalType": "struct IV3Migrator.MigrateParams",
          "name": "params",
          "type": "tuple"
        }
      ],
      "name": "migrate",
      "outputs": [],
      "stateMutability": "nonpayable",
      "type": "function"
    },
    {
      "inputs": [
        {
          "internalType": "bytes[]",
          "name": "data",
          "type": "bytes[]"
        }
      ],
      "name": "multicall",
      "outputs": [
        {
          "internalType": "bytes[]",
          "name": "results",
          "type": "bytes[]"
        }
      ],
      "stateMutability": "payable",
      "type": "function"
    },
    {
      "inputs": [],
      "name": "nonfungiblePositionManager",
      "outputs": [
        {
          "internalType": "address",
          "name": "",
          "type": "address"
        }
      ],
      "stateMutability": "view",
      "type": "function"
    },
    {
      "inputs": [
        {
          "internalType": "address",
          "name": "token",
          "type": "address"
        },
        {
          "internalType": "uint256",
          "name": "value",
          "type": "uint256"
        },
        {
          "internalType": "uint256",
          "name": "deadline",
          "type": "uint256"
        },
        {
          "internalType": "uint8",
          "name": "v",
          "type": "uint8"
        },
        {
          "internalType": "bytes32",
          "name": "r",
          "type": "bytes32"
        },
        {
          "internalType": "bytes32",
          "name": "s",
          "type": "bytes32"
        }
      ],
      "name": "selfPermit",
      "outputs": [],
      "stateMutability": "payable",
      "type": "function"
    },
    {
      "inputs": [
        {
          "internalType": "address",
          "name": "token",
          "type": "address"
        },
        {
          "internalType": "uint256",
          "name": "nonce",
          "type": "uint256"
        },
        {
          "internalType": "uint256",
          "name": "expiry",
          "type": "uint256"
        },
        {
          "internalType": "uint8",
          "name": "v",
          "type": "uint8"
        },
        {
          "internalType": "bytes32",
          "name": "r",
          "type": "bytes32"
        },
        {
          "internalType": "bytes32",
          "name": "s",
          "type": "bytes32"
        }
      ],
      "name": "selfPermitAllowed",
      "outputs": [],
      "stateMutability": "payable",
      "type": "function"
    },
    {
      "inputs": [
        {
          "internalType": "address",
          "name": "token",
          "type": "address"
        },
        {
          "internalType": "uint256",
          "name": "nonce",
          "type": "uint256"
        },
        {
          "internalType": "uint256",
          "name": "expiry",
          "type": "uint256"
        },
        {
          "internalType": "uint8",
          "name": "v",
          "type": "uint8"
        },
        {
          "internalType": "bytes32",
          "name": "r",
          "type": "bytes32"
        },
        {
          "internalType": "bytes32",
          "name": "s",
          "type": "bytes32"
        }
      ],
      "name": "selfPermitAllowedIfNecessary",
      "outputs": [],
      "stateMutability": "payable",
      "type": "function"
    },
    {
      "inputs": [
        {
          "internalType": "address",
          "name": "token",
          "type": "address"
        },
        {
          "internalType": "uint256",
          "name": "value",
          "type": "uint256"
        },
        {
          "internalType": "uint256",
          "name": "deadline",
          "type": "uint256"
        },
        {
          "internalType": "uint8",
          "name": "v",
          "type": "uint8"
        },
        {
          "internalType": "bytes32",
          "name": "r",
          "type": "bytes32"
        },
        {
          "internalType": "bytes32",
          "name": "s",
          "type": "bytes32"
        }
      ],
      "name": "selfPermitIfNecessary",
      "outputs": [],
      "stateMutability": "payable",
      "type": "function"
    },
    {
      "stateMutability": "payable",
      "type": "receive"
    }
  ],
  "bytecode": "0x60e06040523480156200001157600080fd5b5060405162001b6b38038062001b6b833981016040819052620000349162000079565b6001600160601b0319606093841b811660805291831b821660a05290911b1660c052620000c2565b80516001600160a01b03811681146200007457600080fd5b919050565b6000806000606084860312156200008e578283fd5b62000099846200005c565b9250620000a9602085016200005c565b9150620000b9604085016200005c565b90509250925092565b60805160601c60a05160601c60c05160601c611a3d6200012e600039806107e15280610aac5280610ae65280610b105280610cb952508060a552806105e45280610d055280610d5c5280610e375280610e8e525080610251528061033d52806108945250611a3d6000f3fe6080604052600436106100955760003560e01c8063b44a272211610059578063b44a272214610176578063c2e3140a1461018b578063c45a01551461019e578063d44f2bf2146101b3578063f3995c67146101d3576100ed565b806313ead562146100f25780634659a4941461011b5780634aa4a4fc1461012e578063a4a78f0c14610143578063ac9650d814610156576100ed565b366100ed57336001600160a01b037f000000000000000000000000000000000000000000000000000000000000000016146100eb5760405162461bcd60e51b81526004016100e290611860565b60405180910390fd5b005b600080fd5b61010561010036600461145d565b6101e6565b6040516101129190611787565b60405180910390f35b6100eb6101293660046114b6565b610548565b34801561013a57600080fd5b506101056105e2565b6100eb6101513660046114b6565b610606565b61016961016436600461150f565b61069f565b60405161011291906117bf565b34801561018257600080fd5b506101056107df565b6100eb6101993660046114b6565b610803565b3480156101aa57600080fd5b50610105610892565b3480156101bf57600080fd5b506100eb6101ce36600461166e565b6108b6565b6100eb6101e13660046114b6565b610f22565b600061020c604051806040016040528060038152602001621a1a5d60ea1b815250610f94565b836001600160a01b0316856001600160a01b03161061022a57600080fd5b61024f604051806040016040528060048152602001633434ba1960e11b815250610f94565b7f00000000000000000000000000000000000000000000000000000000000000006001600160a01b0316631698ee828686866040518463ffffffff1660e01b815260040180846001600160a01b03168152602001836001600160a01b031681526020018262ffffff168152602001935050505060206040518083038186803b1580156102da57600080fd5b505afa1580156102ee573d6000803e3d6000fd5b505050506040513d602081101561030457600080fd5b50516040805180820190915260048152636869743360e01b602082015290915061032d90610f94565b6001600160a01b03811661045f577f00000000000000000000000000000000000000000000000000000000000000006001600160a01b031663a16712958686866040518463ffffffff1660e01b815260040180846001600160a01b03168152602001836001600160a01b031681526020018262ffffff1681526020019350505050602060405180830381600087803b1580156103c857600080fd5b505af11580156103dc573d6000803e3d6000fd5b505050506040513d60208110156103f257600080fd5b50516040805163f637731d60e01b81526001600160a01b03858116600483015291519293509083169163f637731d9160248082019260009290919082900301818387803b15801561044257600080fd5b505af1158015610456573d6000803e3d6000fd5b50505050610540565b6000816001600160a01b0316633850c7bd6040518163ffffffff1660e01b815260040160e06040518083038186803b15801561049a57600080fd5b505afa1580156104ae573d6000803e3d6000fd5b505050506040513d60e08110156104c457600080fd5b505190506001600160a01b03811661053e57816001600160a01b031663f637731d846040518263ffffffff1660e01b815260040180826001600160a01b03168152602001915050600060405180830381600087803b15801561052557600080fd5b505af1158015610539573d6000803e3d6000fd5b505050505b505b949350505050565b604080516323f2ebc360e21b815233600482015230602482015260448101879052606481018690526001608482015260ff851660a482015260c4810184905260e4810183905290516001600160a01b03881691638fcbaf0c9161010480830192600092919082900301818387803b1580156105c257600080fd5b505af11580156105d6573d6000803e3d6000fd5b50505050505050505050565b7f000000000000000000000000000000000000000000000000000000000000000081565b60408051636eb1769f60e11b81523360048201523060248201529051600019916001600160a01b0389169163dd62ed3e91604480820192602092909190829003018186803b15801561065757600080fd5b505afa15801561066b573d6000803e3d6000fd5b505050506040513d602081101561068157600080fd5b5051101561069757610697868686868686610548565b505050505050565b60608167ffffffffffffffff811180156106b857600080fd5b506040519080825280602002602001820160405280156106ec57816020015b60608152602001906001900390816106d75790505b50905060005b828110156107d8576000803086868581811061070a57fe5b905060200281019061071c9190611968565b60405161072a929190611777565b600060405180830381855af49150503d8060008114610765576040519150601f19603f3d011682016040523d82523d6000602084013e61076a565b606091505b5091509150816107b65760448151101561078357600080fd5b6004810190508080602001905181019061079d91906115d7565b60405162461bcd60e51b81526004016100e2919061181f565b808484815181106107c357fe5b602090810291909101015250506001016106f2565b5092915050565b7f000000000000000000000000000000000000000000000000000000000000000081565b60408051636eb1769f60e11b8152336004820152306024820152905186916001600160a01b0389169163dd62ed3e91604480820192602092909190829003018186803b15801561085257600080fd5b505afa158015610866573d6000803e3d6000fd5b505050506040513d602081101561087c57600080fd5b5051101561069757610697868686868686610f22565b7f000000000000000000000000000000000000000000000000000000000000000081565b60006108c86060830160408401611714565b60ff16116108e85760405162461bcd60e51b81526004016100e290611832565b60646108fa6060830160408401611714565b60ff16111561091b5760405162461bcd60e51b81526004016100e290611883565b610928602082018261143a565b6001600160a01b03166323b872dd33610944602085018561143a565b84602001356040518463ffffffff1660e01b81526004016109679392919061179b565b602060405180830381600087803b15801561098157600080fd5b505af1158015610995573d6000803e3d6000fd5b505050506040513d601f19601f820116820180604052508101906109b9919061159a565b506000806109ca602084018461143a565b6001600160a01b03166389afcb44306040518263ffffffff1660e01b81526004016109f59190611787565b6040805180830381600087803b158015610a0e57600080fd5b505af1158015610a22573d6000803e3d6000fd5b505050506040513d601f19601f82011682018060405250810190610a4691906116f1565b909250905060006064610a6c610a626060870160408801611714565b859060ff1661103d565b81610a7357fe5b04905060006064610a8d610a626060880160408901611714565b81610a9457fe5b049050610ad1610aaa608087016060880161143a565b7f000000000000000000000000000000000000000000000000000000000000000084611067565b610b0b610ae460a087016080880161143a565b7f000000000000000000000000000000000000000000000000000000000000000083611067565b6000807f00000000000000000000000000000000000000000000000000000000000000006001600160a01b031663883164566040518061016001604052808a6060016020810190610b5c919061143a565b6001600160a01b03168152602001610b7a60a08c0160808d0161143a565b6001600160a01b03168152602001610b9860c08c0160a08d01611686565b62ffffff168152602001610bb260e08c0160c08d016115b6565b60020b8152602001610bcb6101008c0160e08d016115b6565b60020b815260208101889052604081018790526101008b013560608201526101208b0135608082015260a001610c096101608c016101408d0161143a565b6001600160a01b031681526020018a61016001358152506040518263ffffffff1660e01b8152600401610c3c91906118b1565b608060405180830381600087803b158015610c5657600080fd5b505af1158015610c6a573d6000803e3d6000fd5b505050506040513d601f19601f82011682018060405250810190610c8e91906116a0565b93509350505085821015610dee5783821015610cdf57610cdf610cb76080890160608a0161143a565b7f00000000000000000000000000000000000000000000000000000000000000006000611067565b818603610cf46101a089016101808a0161157e565b8015610d4057506001600160a01b037f000000000000000000000000000000000000000000000000000000000000000016610d3560808a0160608b0161143a565b6001600160a01b0316145b15610dd257604051632e1a7d4d60e01b81526001600160a01b037f00000000000000000000000000000000000000000000000000000000000000001690632e1a7d4d90610d9190849060040161195f565b600060405180830381600087803b158015610dab57600080fd5b505af1158015610dbf573d6000803e3d6000fd5b50505050610dcd33826111b5565b610dec565b610dec610de560808a0160608b0161143a565b33836112a9565b505b84811015610f195782811015610e1157610e11610cb760a0890160808a0161143a565b808503610e266101a089016101808a0161157e565b8015610e7257506001600160a01b037f000000000000000000000000000000000000000000000000000000000000000016610e6760a08a0160808b0161143a565b6001600160a01b0316145b15610f0457604051632e1a7d4d60e01b81526001600160a01b037f00000000000000000000000000000000000000000000000000000000000000001690632e1a7d4d90610ec390849060040161195f565b600060405180830381600087803b158015610edd57600080fd5b505af1158015610ef1573d6000803e3d6000fd5b50505050610eff33826111b5565b610f17565b610f17610de560a08a0160808b0161143a565b505b50505050505050565b6040805163d505accf60e01b8152336004820152306024820152604481018790526064810186905260ff8516608482015260a4810184905260c4810183905290516001600160a01b0388169163d505accf9160e480830192600092919082900301818387803b1580156105c257600080fd5b61103a816040516024018080602001828103825283818151815260200191508051906020019080838360005b83811015610fd8578181015183820152602001610fc0565b50505050905090810190601f1680156110055780820380516001836020036101000a031916815260200191505b5060408051601f198184030181529190526020810180516001600160e01b031663104c13eb60e21b17905292506113f0915050565b50565b60008215806110585750508181028183828161105557fe5b04145b61106157600080fd5b92915050565b604080516001600160a01b038481166024830152604480830185905283518084039091018152606490920183526020820180516001600160e01b031663095ea7b360e01b1781529251825160009485949389169392918291908083835b602083106110e35780518252601f1990920191602091820191016110c4565b6001836020036101000a0380198251168184511680821785525050505050509050019150506000604051808303816000865af19150503d8060008114611145576040519150601f19603f3d011682016040523d82523d6000602084013e61114a565b606091505b5091509150818015611178575080511580611178575080806020019051602081101561117557600080fd5b50515b6111ae576040805162461bcd60e51b8152602060048201526002602482015261534160f01b604482015290519081900360640190fd5b5050505050565b604080516000808252602082019092526001600160a01b0384169083906040518082805190602001908083835b602083106112015780518252601f1990920191602091820191016111e2565b6001836020036101000a03801982511681845116808217855250505050505090500191505060006040518083038185875af1925050503d8060008114611263576040519150601f19603f3d011682016040523d82523d6000602084013e611268565b606091505b50509050806112a4576040805162461bcd60e51b815260206004820152600360248201526253544560e81b604482015290519081900360640190fd5b505050565b604080516001600160a01b038481166024830152604480830185905283518084039091018152606490920183526020820180516001600160e01b031663a9059cbb60e01b1781529251825160009485949389169392918291908083835b602083106113255780518252601f199092019160209182019101611306565b6001836020036101000a0380198251168184511680821785525050505050509050019150506000604051808303816000865af19150503d8060008114611387576040519150601f19603f3d011682016040523d82523d6000602084013e61138c565b606091505b50915091508180156113ba5750805115806113ba57508080602001905160208110156113b757600080fd5b50515b6111ae576040805162461bcd60e51b815260206004820152600260248201526114d560f21b604482015290519081900360640190fd5b80516a636f6e736f6c652e6c6f67602083016000808483855afa5050505050565b803562ffffff8116811461142457600080fd5b919050565b803560ff8116811461142457600080fd5b60006020828403121561144b578081fd5b8135611456816119e4565b9392505050565b60008060008060808587031215611472578283fd5b843561147d816119e4565b9350602085013561148d816119e4565b925061149b60408601611411565b915060608501356114ab816119e4565b939692955090935050565b60008060008060008060c087890312156114ce578182fd5b86356114d9816119e4565b955060208701359450604087013593506114f560608801611429565b92506080870135915060a087013590509295509295509295565b60008060208385031215611521578182fd5b823567ffffffffffffffff80821115611538578384fd5b818501915085601f83011261154b578384fd5b813581811115611559578485fd5b866020808302850101111561156c578485fd5b60209290920196919550909350505050565b60006020828403121561158f578081fd5b8135611456816119f9565b6000602082840312156115ab578081fd5b8151611456816119f9565b6000602082840312156115c7578081fd5b81358060020b8114611456578182fd5b6000602082840312156115e8578081fd5b815167ffffffffffffffff808211156115ff578283fd5b818401915084601f830112611612578283fd5b81518181111561161e57fe5b604051601f8201601f19168101602001838111828210171561163c57fe5b604052818152838201602001871015611653578485fd5b6116648260208301602087016119b4565b9695505050505050565b60006101a08284031215611680578081fd5b50919050565b600060208284031215611697578081fd5b61145682611411565b600080600080608085870312156116b5578384fd5b8451935060208501516fffffffffffffffffffffffffffffffff811681146116db578384fd5b6040860151606090960151949790965092505050565b60008060408385031215611703578182fd5b505080516020909101519092909150565b600060208284031215611725578081fd5b61145682611429565b6001600160a01b03169052565b600081518084526117538160208601602086016119b4565b601f01601f19169290920160200192915050565b60020b9052565b62ffffff169052565b6000828483379101908152919050565b6001600160a01b0391909116815260200190565b6001600160a01b039384168152919092166020820152604081019190915260600190565b6000602080830181845280855180835260408601915060408482028701019250838701855b8281101561181257603f1988860301845261180085835161173b565b945092850192908501906001016117e4565b5092979650505050505050565b600060208252611456602083018461173b565b60208082526014908201527314195c98d95b9d1859d9481d1bdbc81cdb585b1b60621b604082015260600190565b6020808252600990820152684e6f7420574554483960b81b604082015260600190565b60208082526014908201527350657263656e7461676520746f6f206c6172676560601b604082015260600190565b6000610160820190506118c582845161172e565b60208301516118d7602084018261172e565b5060408301516118ea604084018261176e565b5060608301516118fd6060840182611767565b5060808301516119106080840182611767565b5060a083015160a083015260c083015160c083015260e083015160e08301526101008084015181840152506101208084015161194e8285018261172e565b505061014092830151919092015290565b90815260200190565b6000808335601e1984360301811261197e578283fd5b83018035915067ffffffffffffffff821115611998578283fd5b6020019150368190038213156119ad57600080fd5b9250929050565b60005b838110156119cf5781810151838201526020016119b7565b838111156119de576000848401525b50505050565b6001600160a01b038116811461103a57600080fd5b801515811461103a57600080fdfea264697066735822122064566e88a10e392a6d3332b8bdf504c031596ff9932d4c27caf6a11297c6ffcf64736f6c63430007060033",
  "linkReferences": {},
  "deployedLinkReferences": {}
}