{
  "_format": "hh-sol-artifact-1",
  "contractName": "MockTimeSwapRouter",
  "sourceName": "contracts/test/MockTimeSwapRouter.sol",
  "abi": [
    {
      "inputs": [
        {
          "internalType": "address",
          "name": "_factory",
          "type": "address"
        },
        {
          "internalType": "address",
          "name": "_WETH9",
          "type": "address"
        }
      ],
      "stateMutability": "nonpayable",
      "type": "constructor"
    },
    {
      "inputs": [],
      "name": "WETH9",
      "outputs": [
        {
          "internalType": "address",
          "name": "",
          "type": "address"
        }
      ],
      "stateMutability": "view",
      "type": "function"
    },
    {
      "inputs": [
        {
          "components": [
            {
              "internalType": "bytes",
              "name": "path",
              "type": "bytes"
            },
            {
              "internalType": "address",
              "name": "recipient",
              "type": "address"
            },
            {
              "internalType": "uint256",
              "name": "deadline",
              "type": "uint256"
            },
            {
              "internalType": "uint256",
              "name": "amountIn",
              "type": "uint256"
            },
            {
              "internalType": "uint256",
              "name": "amountOutMinimum",
              "type": "uint256"
            }
          ],
          "internalType": "struct ISwapRouter.ExactInputParams",
          "name": "params",
          "type": "tuple"
        }
      ],
      "name": "exactInput",
      "outputs": [
        {
          "internalType": "uint256",
          "name": "amountOut",
          "type": "uint256"
        }
      ],
      "stateMutability": "payable",
      "type": "function"
    },
    {
      "inputs": [
        {
          "components": [
            {
              "internalType": "address",
              "name": "tokenIn",
              "type": "address"
            },
            {
              "internalType": "address",
              "name": "tokenOut",
              "type": "address"
            },
            {
              "internalType": "uint24",
              "name": "fee",
              "type": "uint24"
            },
            {
              "internalType": "address",
              "name": "recipient",
              "type": "address"
            },
            {
              "internalType": "uint256",
              "name": "deadline",
              "type": "uint256"
            },
            {
              "internalType": "uint256",
              "name": "amountIn",
              "type": "uint256"
            },
            {
              "internalType": "uint256",
              "name": "amountOutMinimum",
              "type": "uint256"
            },
            {
              "internalType": "uint160",
              "name": "sqrtPriceLimitX96",
              "type": "uint160"
            }
          ],
          "internalType": "struct ISwapRouter.ExactInputSingleParams",
          "name": "params",
          "type": "tuple"
        }
      ],
      "name": "exactInputSingle",
      "outputs": [
        {
          "internalType": "uint256",
          "name": "amountOut",
          "type": "uint256"
        }
      ],
      "stateMutability": "payable",
      "type": "function"
    },
    {
      "inputs": [
        {
          "components": [
            {
              "internalType": "bytes",
              "name": "path",
              "type": "bytes"
            },
            {
              "internalType": "address",
              "name": "recipient",
              "type": "address"
            },
            {
              "internalType": "uint256",
              "name": "deadline",
              "type": "uint256"
            },
            {
              "internalType": "uint256",
              "name": "amountOut",
              "type": "uint256"
            },
            {
              "internalType": "uint256",
              "name": "amountInMaximum",
              "type": "uint256"
            }
          ],
          "internalType": "struct ISwapRouter.ExactOutputParams",
          "name": "params",
          "type": "tuple"
        }
      ],
      "name": "exactOutput",
      "outputs": [
        {
          "internalType": "uint256",
          "name": "amountIn",
          "type": "uint256"
        }
      ],
      "stateMutability": "payable",
      "type": "function"
    },
    {
      "inputs": [
        {
          "components": [
            {
              "internalType": "address",
              "name": "tokenIn",
              "type": "address"
            },
            {
              "internalType": "address",
              "name": "tokenOut",
              "type": "address"
            },
            {
              "internalType": "uint24",
              "name": "fee",
              "type": "uint24"
            },
            {
              "internalType": "address",
              "name": "recipient",
              "type": "address"
            },
            {
              "internalType": "uint256",
              "name": "deadline",
              "type": "uint256"
            },
            {
              "internalType": "uint256",
              "name": "amountOut",
              "type": "uint256"
            },
            {
              "internalType": "uint256",
              "name": "amountInMaximum",
              "type": "uint256"
            },
            {
              "internalType": "uint160",
              "name": "sqrtPriceLimitX96",
              "type": "uint160"
            }
          ],
          "internalType": "struct ISwapRouter.ExactOutputSingleParams",
          "name": "params",
          "type": "tuple"
        }
      ],
      "name": "exactOutputSingle",
      "outputs": [
        {
          "internalType": "uint256",
          "name": "amountIn",
          "type": "uint256"
        }
      ],
      "stateMutability": "payable",
      "type": "function"
    },
    {
      "inputs": [],
      "name": "factory",
      "outputs": [
        {
          "internalType": "address",
          "name": "",
          "type": "address"
        }
      ],
      "stateMutability": "view",
      "type": "function"
    },
    {
      "inputs": [
        {
          "internalType": "bytes[]",
          "name": "data",
          "type": "bytes[]"
        }
      ],
      "name": "multicall",
      "outputs": [
        {
          "internalType": "bytes[]",
          "name": "results",
          "type": "bytes[]"
        }
      ],
      "stateMutability": "payable",
      "type": "function"
    },
    {
      "inputs": [],
      "name": "refundETH",
      "outputs": [],
      "stateMutability": "payable",
      "type": "function"
    },
    {
      "inputs": [
        {
          "internalType": "address",
          "name": "token",
          "type": "address"
        },
        {
          "internalType": "uint256",
          "name": "value",
          "type": "uint256"
        },
        {
          "internalType": "uint256",
          "name": "deadline",
          "type": "uint256"
        },
        {
          "internalType": "uint8",
          "name": "v",
          "type": "uint8"
        },
        {
          "internalType": "bytes32",
          "name": "r",
          "type": "bytes32"
        },
        {
          "internalType": "bytes32",
          "name": "s",
          "type": "bytes32"
        }
      ],
      "name": "selfPermit",
      "outputs": [],
      "stateMutability": "payable",
      "type": "function"
    },
    {
      "inputs": [
        {
          "internalType": "address",
          "name": "token",
          "type": "address"
        },
        {
          "internalType": "uint256",
          "name": "nonce",
          "type": "uint256"
        },
        {
          "internalType": "uint256",
          "name": "expiry",
          "type": "uint256"
        },
        {
          "internalType": "uint8",
          "name": "v",
          "type": "uint8"
        },
        {
          "internalType": "bytes32",
          "name": "r",
          "type": "bytes32"
        },
        {
          "internalType": "bytes32",
          "name": "s",
          "type": "bytes32"
        }
      ],
      "name": "selfPermitAllowed",
      "outputs": [],
      "stateMutability": "payable",
      "type": "function"
    },
    {
      "inputs": [
        {
          "internalType": "address",
          "name": "token",
          "type": "address"
        },
        {
          "internalType": "uint256",
          "name": "nonce",
          "type": "uint256"
        },
        {
          "internalType": "uint256",
          "name": "expiry",
          "type": "uint256"
        },
        {
          "internalType": "uint8",
          "name": "v",
          "type": "uint8"
        },
        {
          "internalType": "bytes32",
          "name": "r",
          "type": "bytes32"
        },
        {
          "internalType": "bytes32",
          "name": "s",
          "type": "bytes32"
        }
      ],
      "name": "selfPermitAllowedIfNecessary",
      "outputs": [],
      "stateMutability": "payable",
      "type": "function"
    },
    {
      "inputs": [
        {
          "internalType": "address",
          "name": "token",
          "type": "address"
        },
        {
          "internalType": "uint256",
          "name": "value",
          "type": "uint256"
        },
        {
          "internalType": "uint256",
          "name": "deadline",
          "type": "uint256"
        },
        {
          "internalType": "uint8",
          "name": "v",
          "type": "uint8"
        },
        {
          "internalType": "bytes32",
          "name": "r",
          "type": "bytes32"
        },
        {
          "internalType": "bytes32",
          "name": "s",
          "type": "bytes32"
        }
      ],
      "name": "selfPermitIfNecessary",
      "outputs": [],
      "stateMutability": "payable",
      "type": "function"
    },
    {
      "inputs": [
        {
          "internalType": "uint256",
          "name": "_time",
          "type": "uint256"
        }
      ],
      "name": "setTime",
      "outputs": [],
      "stateMutability": "nonpayable",
      "type": "function"
    },
    {
      "inputs": [
        {
          "internalType": "address",
          "name": "token",
          "type": "address"
        },
        {
          "internalType": "uint256",
          "name": "amountMinimum",
          "type": "uint256"
        },
        {
          "internalType": "address",
          "name": "recipient",
          "type": "address"
        }
      ],
      "name": "sweepToken",
      "outputs": [],
      "stateMutability": "payable",
      "type": "function"
    },
    {
      "inputs": [
        {
          "internalType": "address",
          "name": "token",
          "type": "address"
        },
        {
          "internalType": "uint256",
          "name": "amountMinimum",
          "type": "uint256"
        },
        {
          "internalType": "address",
          "name": "recipient",
          "type": "address"
        },
        {
          "internalType": "uint256",
          "name": "feeBips",
          "type": "uint256"
        },
        {
          "internalType": "address",
          "name": "feeRecipient",
          "type": "address"
        }
      ],
      "name": "sweepTokenWithFee",
      "outputs": [],
      "stateMutability": "payable",
      "type": "function"
    },
    {
      "inputs": [
        {
          "internalType": "int256",
          "name": "amount0Delta",
          "type": "int256"
        },
        {
          "internalType": "int256",
          "name": "amount1Delta",
          "type": "int256"
        },
        {
          "internalType": "bytes",
          "name": "_data",
          "type": "bytes"
        }
      ],
      "name": "uniswapV3SwapCallback",
      "outputs": [],
      "stateMutability": "nonpayable",
      "type": "function"
    },
    {
      "inputs": [
        {
          "internalType": "uint256",
          "name": "amountMinimum",
          "type": "uint256"
        },
        {
          "internalType": "address",
          "name": "recipient",
          "type": "address"
        }
      ],
      "name": "unwrapWETH9",
      "outputs": [],
      "stateMutability": "payable",
      "type": "function"
    },
    {
      "inputs": [
        {
          "internalType": "uint256",
          "name": "amountMinimum",
          "type": "uint256"
        },
        {
          "internalType": "address",
          "name": "recipient",
          "type": "address"
        },
        {
          "internalType": "uint256",
          "name": "feeBips",
          "type": "uint256"
        },
        {
          "internalType": "address",
          "name": "feeRecipient",
          "type": "address"
        }
      ],
      "name": "unwrapWETH9WithFee",
      "outputs": [],
      "stateMutability": "payable",
      "type": "function"
    },
    {
      "stateMutability": "payable",
      "type": "receive"
    }
  ],
  "bytecode": "0x60c06040526000196000553480156200001757600080fd5b5060405162002917380380620029178339810160408190526200003a9162000076565b6001600160601b0319606092831b8116608052911b1660a052620000ad565b80516001600160a01b03811681146200007157600080fd5b919050565b6000806040838503121562000089578182fd5b620000948362000059565b9150620000a46020840162000059565b90509250929050565b60805160601c60a05160601c61280e620001096000398061011d52806104f752806105e2528061066f52806106af528061079a528061186152806118a7528061191b525080610c38528061113352806119f6525061280e6000f3fe60806040526004361061010d5760003560e01c8063c04b8d5911610095578063df2ab5bb11610064578063df2ab5bb146102af578063e0e189a0146102c2578063f28c0498146102d5578063f3995c67146102e8578063fa461e33146102fb5761017d565b8063c04b8d5914610261578063c2e3140a14610274578063c45a015514610287578063db3e21981461029c5761017d565b806349404b7c116100dc57806349404b7c146101e65780634aa4a4fc146101f95780639b2c0a371461021b578063a4a78f0c1461022e578063ac9650d8146102415761017d565b806312210e8a146101825780633beb26c41461018a578063414bf389146101aa5780634659a494146101d35761017d565b3661017d57336001600160a01b037f0000000000000000000000000000000000000000000000000000000000000000161461017b576040805162461bcd60e51b81526020600482015260096024820152684e6f7420574554483960b81b604482015290519081900360640190fd5b005b600080fd5b61017b61031b565b34801561019657600080fd5b5061017b6101a5366004612492565b61032d565b6101bd6101b836600461238b565b610332565b6040516101ca91906126fc565b60405180910390f35b61017b6101e1366004612109565b610459565b61017b6101f43660046124aa565b6104f3565b34801561020557600080fd5b5061020e61066d565b6040516101ca9190612599565b61017b6102293660046124d9565b610691565b61017b61023c366004612109565b61085d565b61025461024f366004612169565b6108ee565b6040516101ca91906125f3565b6101bd61026f3660046122e0565b610a2e565b61017b610282366004612109565b610ba7565b34801561029357600080fd5b5061020e610c36565b6101bd6102aa36600461238b565b610c5a565b61017b6102bd36600461206a565b610d81565b61017b6102d03660046120ab565b610e5f565b6101bd6102e33660046123a7565b610f86565b61017b6102f6366004612109565b61107c565b34801561030757600080fd5b5061017b6103163660046121fb565b6110ee565b471561032b5761032b3347611201565b565b600155565b60008160800135806103426112f0565b111561038b576040805162461bcd60e51b8152602060048201526013602482015272151c985b9cd858dd1a5bdb881d1bdbc81bdb19606a1b604482015290519081900360640190fd5b61042460a08401356103a36080860160608701612047565b6103b4610100870160e08801612047565b60408051808201909152806103cc60208a018a612047565b6103dc60608b0160408c0161246f565b6103ec60408c0160208d01612047565b6040516020016103fe9392919061254e565b6040516020818303038152906040528152602001336001600160a01b03168152506112f6565b91508260c001358210156104535760405162461bcd60e51b815260040161044a90612692565b60405180910390fd5b50919050565b604080516323f2ebc360e21b815233600482015230602482015260448101879052606481018690526001608482015260ff851660a482015260c4810184905260e4810183905290516001600160a01b03881691638fcbaf0c9161010480830192600092919082900301818387803b1580156104d357600080fd5b505af11580156104e7573d6000803e3d6000fd5b50505050505050505050565b60007f00000000000000000000000000000000000000000000000000000000000000006001600160a01b03166370a08231306040518263ffffffff1660e01b815260040180826001600160a01b0316815260200191505060206040518083038186803b15801561056257600080fd5b505afa158015610576573d6000803e3d6000fd5b505050506040513d602081101561058c57600080fd5b50519050828110156105da576040805162461bcd60e51b8152602060048201526012602482015271496e73756666696369656e7420574554483960701b604482015290519081900360640190fd5b8015610668577f00000000000000000000000000000000000000000000000000000000000000006001600160a01b0316632e1a7d4d826040518263ffffffff1660e01b815260040180828152602001915050600060405180830381600087803b15801561064657600080fd5b505af115801561065a573d6000803e3d6000fd5b505050506106688282611201565b505050565b7f000000000000000000000000000000000000000000000000000000000000000081565b6000821180156106a2575060648211155b6106ab57600080fd5b60007f00000000000000000000000000000000000000000000000000000000000000006001600160a01b03166370a08231306040518263ffffffff1660e01b815260040180826001600160a01b0316815260200191505060206040518083038186803b15801561071a57600080fd5b505afa15801561072e573d6000803e3d6000fd5b505050506040513d602081101561074457600080fd5b5051905084811015610792576040805162461bcd60e51b8152602060048201526012602482015271496e73756666696369656e7420574554483960701b604482015290519081900360640190fd5b8015610856577f00000000000000000000000000000000000000000000000000000000000000006001600160a01b0316632e1a7d4d826040518263ffffffff1660e01b815260040180828152602001915050600060405180830381600087803b1580156107fe57600080fd5b505af1158015610812573d6000803e3d6000fd5b50505050600061271061082e858461144890919063ffffffff16565b8161083557fe5b0490508015610848576108488382611201565b61085485828403611201565b505b5050505050565b60408051636eb1769f60e11b81523360048201523060248201529051600019916001600160a01b0389169163dd62ed3e91604480820192602092909190829003018186803b1580156108ae57600080fd5b505afa1580156108c2573d6000803e3d6000fd5b505050506040513d60208110156108d857600080fd5b5051101561085457610854868686868686610459565b60608167ffffffffffffffff8111801561090757600080fd5b5060405190808252806020026020018201604052801561093b57816020015b60608152602001906001900390816109265790505b50905060005b82811015610a27576000803086868581811061095957fe5b905060200281019061096b9190612705565b604051610979929190612589565b600060405180830381855af49150503d80600081146109b4576040519150601f19603f3d011682016040523d82523d6000602084013e6109b9565b606091505b509150915081610a05576044815110156109d257600080fd5b600481019050808060200190518101906109ec9190612276565b60405162461bcd60e51b815260040161044a9190612653565b80848481518110610a1257fe5b60209081029190910101525050600101610941565b5092915050565b6000816040015180610a3e6112f0565b1115610a87576040805162461bcd60e51b8152602060048201526013602482015272151c985b9cd858dd1a5bdb881d1bdbc81bdb19606a1b604482015290519081900360640190fd5b6040805180820190915260018152603160f81b60208201523390610aaa90611472565b6000610ab9856000015161151b565b9050610add604051806040016040528060018152602001601960f91b815250611472565b610b27856060015182610af4578660200151610af6565b305b60006040518060400160405280610b108b60000151611527565b8152602001876001600160a01b03168152506112f6565b60608601528015610b47578451309250610b4090611536565b8552610b54565b8460600151935050610b5a565b50610aaa565b610b7c604051806040016040528060018152602001600d60fa1b815250611472565b8360800151831015610ba05760405162461bcd60e51b815260040161044a90612692565b5050919050565b60408051636eb1769f60e11b8152336004820152306024820152905186916001600160a01b0389169163dd62ed3e91604480820192602092909190829003018186803b158015610bf657600080fd5b505afa158015610c0a573d6000803e3d6000fd5b505050506040513d6020811015610c2057600080fd5b505110156108545761085486868686868661107c565b7f000000000000000000000000000000000000000000000000000000000000000081565b6000816080013580610c6a6112f0565b1115610cb3576040805162461bcd60e51b8152602060048201526013602482015272151c985b9cd858dd1a5bdb881d1bdbc81bdb19606a1b604482015290519081900360640190fd5b610d4f60a0840135610ccb6080860160608701612047565b610cdc610100870160e08801612047565b6040518060400160405280886020016020810190610cfa9190612047565b610d0a60608b0160408c0161246f565b610d1760208c018c612047565b604051602001610d299392919061254e565b6040516020818303038152906040528152602001336001600160a01b031681525061154d565b91508260c00135821115610d755760405162461bcd60e51b815260040161044a90612666565b50600019600055919050565b6000836001600160a01b03166370a08231306040518263ffffffff1660e01b815260040180826001600160a01b0316815260200191505060206040518083038186803b158015610dd057600080fd5b505afa158015610de4573d6000803e3d6000fd5b505050506040513d6020811015610dfa57600080fd5b5051905082811015610e48576040805162461bcd60e51b815260206004820152601260248201527124b739bab33334b1b4b2b73a103a37b5b2b760711b604482015290519081900360640190fd5b8015610e5957610e598483836116c8565b50505050565b600082118015610e70575060648211155b610e7957600080fd5b6000856001600160a01b03166370a08231306040518263ffffffff1660e01b815260040180826001600160a01b0316815260200191505060206040518083038186803b158015610ec857600080fd5b505afa158015610edc573d6000803e3d6000fd5b505050506040513d6020811015610ef257600080fd5b5051905084811015610f40576040805162461bcd60e51b815260206004820152601260248201527124b739bab33334b1b4b2b73a103a37b5b2b760711b604482015290519081900360640190fd5b8015610854576000612710610f558386611448565b81610f5c57fe5b0490508015610f7057610f708784836116c8565b610f7d87868385036116c8565b50505050505050565b6000816040013580610f966112f0565b1115610fdf576040805162461bcd60e51b8152602060048201526013602482015272151c985b9cd858dd1a5bdb881d1bdbc81bdb19606a1b604482015290519081900360640190fd5b6110526060840135610ff76040860160208701612047565b604080518082019091526000908061100f8980612705565b8080601f0160208091040260200160405190810160405280939291908181526020018383808284376000920191909152505050908252503360209091015261154d565b5060005491508260800135821115610d755760405162461bcd60e51b815260040161044a90612666565b6040805163d505accf60e01b8152336004820152306024820152604481018790526064810186905260ff8516608482015260a4810184905260c4810183905290516001600160a01b0388169163d505accf9160e480830192600092919082900301818387803b1580156104d357600080fd5b60008413806110fd5750600083135b61110657600080fd5b6000611114828401846123df565b90506000806000611128846000015161180f565b92509250925061115a7f0000000000000000000000000000000000000000000000000000000000000000848484611840565b5060008060008a1361118157846001600160a01b0316846001600160a01b03161089611198565b836001600160a01b0316856001600160a01b0316108a5b9150915081156111b7576111b2858760200151338461185f565b6104e7565b85516111c29061151b565b156111e75785516111d290611536565b86526111e1813360008961154d565b506104e7565b806000819055508394506104e7858760200151338461185f565b604080516000808252602082019092526001600160a01b0384169083906040518082805190602001908083835b6020831061124d5780518252601f19909201916020918201910161122e565b6001836020036101000a03801982511681845116808217855250505050505090500191505060006040518083038185875af1925050503d80600081146112af576040519150601f19603f3d011682016040523d82523d6000602084013e6112b4565b606091505b5050905080610668576040805162461bcd60e51b815260206004820152600360248201526253544560e81b604482015290519081900360640190fd5b60015490565b60006001600160a01b03841661130a573093505b600080600061131c856000015161180f565b919450925090506001600160a01b03808316908416106000806113408686866119ef565b6001600160a01b031663128acb088b856113598f611a2d565b6001600160a01b038e161561136e578d611394565b8761138d5773fffd8963efd1fc6a506488495d951d5263988d25611394565b6401000276a45b8d6040516020016113a591906126bf565b6040516020818303038152906040526040518663ffffffff1660e01b81526004016113d49594939291906125ad565b6040805180830381600087803b1580156113ed57600080fd5b505af1158015611401573d6000803e3d6000fd5b505050506040513d601f19601f8201168201806040525081019061142591906121d8565b91509150826114345781611436565b805b6000039b9a5050505050505050505050565b60008215806114635750508181028183828161146057fe5b04145b61146c57600080fd5b92915050565b611518816040516024018080602001828103825283818151815260200191508051906020019080838360005b838110156114b657818101518382015260200161149e565b50505050905090810190601f1680156114e35780820380516001836020036101000a031916815260200191505b5060408051601f198184030181529190526020810180516001600160e01b031663104c13eb60e21b1790529250611a43915050565b50565b8051604211155b919050565b606061146c826000602b611a64565b805160609061146c90839060179060161901611a64565b60006001600160a01b038416611561573093505b6000806000611573856000015161180f565b919450925090506001600160a01b03808416908316106000806115978587866119ef565b6001600160a01b031663128acb088b856115b08f611a2d565b6000036001600160a01b038e16156115c8578d6115ee565b876115e75773fffd8963efd1fc6a506488495d951d5263988d256115ee565b6401000276a45b8d6040516020016115ff91906126bf565b6040516020818303038152906040526040518663ffffffff1660e01b815260040161162e9594939291906125ad565b6040805180830381600087803b15801561164757600080fd5b505af115801561165b573d6000803e3d6000fd5b505050506040513d601f19601f8201168201806040525081019061167f91906121d8565b9150915060008361169457818360000361169a565b82826000035b90985090506001600160a01b038a166116b9578b81146116b957600080fd5b50505050505050949350505050565b604080516001600160a01b038481166024830152604480830185905283518084039091018152606490920183526020820180516001600160e01b031663a9059cbb60e01b1781529251825160009485949389169392918291908083835b602083106117445780518252601f199092019160209182019101611725565b6001836020036101000a0380198251168184511680821785525050505050509050019150506000604051808303816000865af19150503d80600081146117a6576040519150601f19603f3d011682016040523d82523d6000602084013e6117ab565b606091505b50915091508180156117d95750805115806117d957508080602001905160208110156117d657600080fd5b50515b610856576040805162461bcd60e51b815260206004820152600260248201526114d560f21b604482015290519081900360640190fd5b6000808061181d8482611bb5565b925061182a846014611c65565b9050611837846017611bb5565b91509193909250565b600061185685611851868686611d0c565b611d62565b95945050505050565b7f00000000000000000000000000000000000000000000000000000000000000006001600160a01b0316846001600160a01b03161480156118a05750804710155b156119c2577f00000000000000000000000000000000000000000000000000000000000000006001600160a01b031663d0e30db0826040518263ffffffff1660e01b81526004016000604051808303818588803b15801561190057600080fd5b505af1158015611914573d6000803e3d6000fd5b50505050507f00000000000000000000000000000000000000000000000000000000000000006001600160a01b031663a9059cbb83836040518363ffffffff1660e01b815260040180836001600160a01b0316815260200182815260200192505050602060405180830381600087803b15801561199057600080fd5b505af11580156119a4573d6000803e3d6000fd5b505050506040513d60208110156119ba57600080fd5b50610e599050565b6001600160a01b0383163014156119e3576119de8483836116c8565b610e59565b610e5984848484611d85565b6000611a257f0000000000000000000000000000000000000000000000000000000000000000611a20868686611d0c565b611ed5565b949350505050565b6000600160ff1b8210611a3f57600080fd5b5090565b80516a636f6e736f6c652e6c6f67602083016000808483855afa5050505050565b60608182601f011015611aaf576040805162461bcd60e51b815260206004820152600e60248201526d736c6963655f6f766572666c6f7760901b604482015290519081900360640190fd5b828284011015611af7576040805162461bcd60e51b815260206004820152600e60248201526d736c6963655f6f766572666c6f7760901b604482015290519081900360640190fd5b81830184511015611b43576040805162461bcd60e51b8152602060048201526011602482015270736c6963655f6f75744f66426f756e647360781b604482015290519081900360640190fd5b606082158015611b625760405191506000825260208201604052611bac565b6040519150601f8416801560200281840101858101878315602002848b0101015b81831015611b9b578051835260209283019201611b83565b5050858452601f01601f1916604052505b50949350505050565b600081826014011015611c04576040805162461bcd60e51b8152602060048201526012602482015271746f416464726573735f6f766572666c6f7760701b604482015290519081900360640190fd5b8160140183511015611c55576040805162461bcd60e51b8152602060048201526015602482015274746f416464726573735f6f75744f66426f756e647360581b604482015290519081900360640190fd5b500160200151600160601b900490565b600081826003011015611cb3576040805162461bcd60e51b8152602060048201526011602482015270746f55696e7432345f6f766572666c6f7760781b604482015290519081900360640190fd5b8160030183511015611d03576040805162461bcd60e51b8152602060048201526014602482015273746f55696e7432345f6f75744f66426f756e647360601b604482015290519081900360640190fd5b50016003015190565b611d14611fb9565b826001600160a01b0316846001600160a01b03161115611d32579192915b50604080516060810182526001600160a01b03948516815292909316602083015262ffffff169181019190915290565b6000611d6e8383611ed5565b9050336001600160a01b0382161461146c57600080fd5b604080516001600160a01b0385811660248301528481166044830152606480830185905283518084039091018152608490920183526020820180516001600160e01b03166323b872dd60e01b178152925182516000948594938a169392918291908083835b60208310611e095780518252601f199092019160209182019101611dea565b6001836020036101000a0380198251168184511680821785525050505050509050019150506000604051808303816000865af19150503d8060008114611e6b576040519150601f19603f3d011682016040523d82523d6000602084013e611e70565b606091505b5091509150818015611e9e575080511580611e9e5750808060200190516020811015611e9b57600080fd5b50515b610854576040805162461bcd60e51b815260206004820152600360248201526229aa2360e91b604482015290519081900360640190fd5b600081602001516001600160a01b031682600001516001600160a01b031610611efd57600080fd5b50805160208083015160409384015184516001600160a01b0394851681850152939091168385015262ffffff166060808401919091528351808403820181526080840185528051908301206001600160f81b031960a085015294901b6bffffffffffffffffffffffff191660a183015260b58201939093527fe7dac78d4d759ab9a7a4d3963f93db5fa046c8aba3d385af3a9e981a707722c860d5808301919091528251808303909101815260f5909101909152805191012090565b604080516060810182526000808252602082018190529181019190915290565b8035611522816127c3565b600082601f830112611ff4578081fd5b813561200761200282612775565b612751565b81815284602083860101111561201b578283fd5b816020850160208301379081016020019190915292915050565b60006101008284031215610453578081fd5b600060208284031215612058578081fd5b8135612063816127c3565b9392505050565b60008060006060848603121561207e578182fd5b8335612089816127c3565b92506020840135915060408401356120a0816127c3565b809150509250925092565b600080600080600060a086880312156120c2578081fd5b85356120cd816127c3565b94506020860135935060408601356120e4816127c3565b92506060860135915060808601356120fb816127c3565b809150509295509295909350565b60008060008060008060c08789031215612121578081fd5b863561212c816127c3565b95506020870135945060408701359350606087013560ff8116811461214f578182fd5b9598949750929560808101359460a0909101359350915050565b6000806020838503121561217b578182fd5b823567ffffffffffffffff80821115612192578384fd5b818501915085601f8301126121a5578384fd5b8135818111156121b3578485fd5b86602080830285010111156121c6578485fd5b60209290920196919550909350505050565b600080604083850312156121ea578182fd5b505080516020909101519092909150565b60008060008060608587031215612210578182fd5b8435935060208501359250604085013567ffffffffffffffff80821115612235578384fd5b818701915087601f830112612248578384fd5b813581811115612256578485fd5b886020828501011115612267578485fd5b95989497505060200194505050565b600060208284031215612287578081fd5b815167ffffffffffffffff81111561229d578182fd5b8201601f810184136122ad578182fd5b80516122bb61200282612775565b8181528560208385010111156122cf578384fd5b611856826020830160208601612797565b6000602082840312156122f1578081fd5b813567ffffffffffffffff80821115612308578283fd5b9083019060a0828603121561231b578283fd5b60405160a08101818110838211171561233057fe5b604052823582811115612341578485fd5b61234d87828601611fe4565b82525061235c60208401611fd9565b602082015260408301356040820152606083013560608201526080830135608082015280935050505092915050565b6000610100828403121561239d578081fd5b6120638383612035565b6000602082840312156123b8578081fd5b813567ffffffffffffffff8111156123ce578182fd5b820160a08185031215612063578182fd5b6000602082840312156123f0578081fd5b813567ffffffffffffffff80821115612407578283fd5b908301906040828603121561241a578283fd5b60405160408101818110838211171561242f57fe5b604052823582811115612440578485fd5b61244c87828601611fe4565b8252506020830135925061245f836127c3565b6020810192909252509392505050565b600060208284031215612480578081fd5b813562ffffff81168114612063578182fd5b6000602082840312156124a3578081fd5b5035919050565b600080604083850312156124bc578182fd5b8235915060208301356124ce816127c3565b809150509250929050565b600080600080608085870312156124ee578182fd5b843593506020850135612500816127c3565b9250604085013591506060850135612517816127c3565b939692955090935050565b6000815180845261253a816020860160208601612797565b601f01601f19169290920160200192915050565b606093841b6bffffffffffffffffffffffff19908116825260e89390931b6001600160e81b0319166014820152921b166017820152602b0190565b6000828483379101908152919050565b6001600160a01b0391909116815260200190565b6001600160a01b0386811682528515156020830152604082018590528316606082015260a0608082018190526000906125e890830184612522565b979650505050505050565b6000602080830181845280855180835260408601915060408482028701019250838701855b8281101561264657603f19888603018452612634858351612522565b94509285019290850190600101612618565b5092979650505050505050565b6000602082526120636020830184612522565b602080825260129082015271151bdbc81b5d58da081c995c5d595cdd195960721b604082015260600190565b602080825260139082015272151bdbc81b1a5d1d1b19481c9958d95a5d9959606a1b604082015260600190565b6000602082528251604060208401526126db6060840182612522565b602094909401516001600160a01b0316604093909301929092525090919050565b90815260200190565b6000808335601e1984360301811261271b578283fd5b83018035915067ffffffffffffffff821115612735578283fd5b60200191503681900382131561274a57600080fd5b9250929050565b60405181810167ffffffffffffffff8111828210171561276d57fe5b604052919050565b600067ffffffffffffffff82111561278957fe5b50601f01601f191660200190565b60005b838110156127b257818101518382015260200161279a565b83811115610e595750506000910152565b6001600160a01b038116811461151857600080fdfea2646970667358221220b93e819684b5a2c5d6d66997cc7cdb48258e035220a0e7c1062182bd1fb5a40f64736f6c63430007060033",
  "linkReferences": {},
  "deployedLinkReferences": {}
}