{
  "_format": "hh-sol-artifact-1",
  "contractName": "SwapRouter",
  "sourceName": "contracts/SwapRouter.sol",
  "abi": [
    {
      "inputs": [
        {
          "internalType": "address",
          "name": "_factory",
          "type": "address"
        },
        {
          "internalType": "address",
          "name": "_WETH9",
          "type": "address"
        }
      ],
      "stateMutability": "nonpayable",
      "type": "constructor"
    },
    {
      "inputs": [],
      "name": "WETH9",
      "outputs": [
        {
          "internalType": "address",
          "name": "",
          "type": "address"
        }
      ],
      "stateMutability": "view",
      "type": "function"
    },
    {
      "inputs": [
        {
          "components": [
            {
              "internalType": "bytes",
              "name": "path",
              "type": "bytes"
            },
            {
              "internalType": "address",
              "name": "recipient",
              "type": "address"
            },
            {
              "internalType": "uint256",
              "name": "deadline",
              "type": "uint256"
            },
            {
              "internalType": "uint256",
              "name": "amountIn",
              "type": "uint256"
            },
            {
              "internalType": "uint256",
              "name": "amountOutMinimum",
              "type": "uint256"
            }
          ],
          "internalType": "struct ISwapRouter.ExactInputParams",
          "name": "params",
          "type": "tuple"
        }
      ],
      "name": "exactInput",
      "outputs": [
        {
          "internalType": "uint256",
          "name": "amountOut",
          "type": "uint256"
        }
      ],
      "stateMutability": "payable",
      "type": "function"
    },
    {
      "inputs": [
        {
          "components": [
            {
              "internalType": "address",
              "name": "tokenIn",
              "type": "address"
            },
            {
              "internalType": "address",
              "name": "tokenOut",
              "type": "address"
            },
            {
              "internalType": "uint24",
              "name": "fee",
              "type": "uint24"
            },
            {
              "internalType": "address",
              "name": "recipient",
              "type": "address"
            },
            {
              "internalType": "uint256",
              "name": "deadline",
              "type": "uint256"
            },
            {
              "internalType": "uint256",
              "name": "amountIn",
              "type": "uint256"
            },
            {
              "internalType": "uint256",
              "name": "amountOutMinimum",
              "type": "uint256"
            },
            {
              "internalType": "uint160",
              "name": "sqrtPriceLimitX96",
              "type": "uint160"
            }
          ],
          "internalType": "struct ISwapRouter.ExactInputSingleParams",
          "name": "params",
          "type": "tuple"
        }
      ],
      "name": "exactInputSingle",
      "outputs": [
        {
          "internalType": "uint256",
          "name": "amountOut",
          "type": "uint256"
        }
      ],
      "stateMutability": "payable",
      "type": "function"
    },
    {
      "inputs": [
        {
          "components": [
            {
              "internalType": "bytes",
              "name": "path",
              "type": "bytes"
            },
            {
              "internalType": "address",
              "name": "recipient",
              "type": "address"
            },
            {
              "internalType": "uint256",
              "name": "deadline",
              "type": "uint256"
            },
            {
              "internalType": "uint256",
              "name": "amountOut",
              "type": "uint256"
            },
            {
              "internalType": "uint256",
              "name": "amountInMaximum",
              "type": "uint256"
            }
          ],
          "internalType": "struct ISwapRouter.ExactOutputParams",
          "name": "params",
          "type": "tuple"
        }
      ],
      "name": "exactOutput",
      "outputs": [
        {
          "internalType": "uint256",
          "name": "amountIn",
          "type": "uint256"
        }
      ],
      "stateMutability": "payable",
      "type": "function"
    },
    {
      "inputs": [
        {
          "components": [
            {
              "internalType": "address",
              "name": "tokenIn",
              "type": "address"
            },
            {
              "internalType": "address",
              "name": "tokenOut",
              "type": "address"
            },
            {
              "internalType": "uint24",
              "name": "fee",
              "type": "uint24"
            },
            {
              "internalType": "address",
              "name": "recipient",
              "type": "address"
            },
            {
              "internalType": "uint256",
              "name": "deadline",
              "type": "uint256"
            },
            {
              "internalType": "uint256",
              "name": "amountOut",
              "type": "uint256"
            },
            {
              "internalType": "uint256",
              "name": "amountInMaximum",
              "type": "uint256"
            },
            {
              "internalType": "uint160",
              "name": "sqrtPriceLimitX96",
              "type": "uint160"
            }
          ],
          "internalType": "struct ISwapRouter.ExactOutputSingleParams",
          "name": "params",
          "type": "tuple"
        }
      ],
      "name": "exactOutputSingle",
      "outputs": [
        {
          "internalType": "uint256",
          "name": "amountIn",
          "type": "uint256"
        }
      ],
      "stateMutability": "payable",
      "type": "function"
    },
    {
      "inputs": [],
      "name": "factory",
      "outputs": [
        {
          "internalType": "address",
          "name": "",
          "type": "address"
        }
      ],
      "stateMutability": "view",
      "type": "function"
    },
    {
      "inputs": [
        {
          "internalType": "bytes[]",
          "name": "data",
          "type": "bytes[]"
        }
      ],
      "name": "multicall",
      "outputs": [
        {
          "internalType": "bytes[]",
          "name": "results",
          "type": "bytes[]"
        }
      ],
      "stateMutability": "payable",
      "type": "function"
    },
    {
      "inputs": [],
      "name": "refundETH",
      "outputs": [],
      "stateMutability": "payable",
      "type": "function"
    },
    {
      "inputs": [
        {
          "internalType": "address",
          "name": "token",
          "type": "address"
        },
        {
          "internalType": "uint256",
          "name": "value",
          "type": "uint256"
        },
        {
          "internalType": "uint256",
          "name": "deadline",
          "type": "uint256"
        },
        {
          "internalType": "uint8",
          "name": "v",
          "type": "uint8"
        },
        {
          "internalType": "bytes32",
          "name": "r",
          "type": "bytes32"
        },
        {
          "internalType": "bytes32",
          "name": "s",
          "type": "bytes32"
        }
      ],
      "name": "selfPermit",
      "outputs": [],
      "stateMutability": "payable",
      "type": "function"
    },
    {
      "inputs": [
        {
          "internalType": "address",
          "name": "token",
          "type": "address"
        },
        {
          "internalType": "uint256",
          "name": "nonce",
          "type": "uint256"
        },
        {
          "internalType": "uint256",
          "name": "expiry",
          "type": "uint256"
        },
        {
          "internalType": "uint8",
          "name": "v",
          "type": "uint8"
        },
        {
          "internalType": "bytes32",
          "name": "r",
          "type": "bytes32"
        },
        {
          "internalType": "bytes32",
          "name": "s",
          "type": "bytes32"
        }
      ],
      "name": "selfPermitAllowed",
      "outputs": [],
      "stateMutability": "payable",
      "type": "function"
    },
    {
      "inputs": [
        {
          "internalType": "address",
          "name": "token",
          "type": "address"
        },
        {
          "internalType": "uint256",
          "name": "nonce",
          "type": "uint256"
        },
        {
          "internalType": "uint256",
          "name": "expiry",
          "type": "uint256"
        },
        {
          "internalType": "uint8",
          "name": "v",
          "type": "uint8"
        },
        {
          "internalType": "bytes32",
          "name": "r",
          "type": "bytes32"
        },
        {
          "internalType": "bytes32",
          "name": "s",
          "type": "bytes32"
        }
      ],
      "name": "selfPermitAllowedIfNecessary",
      "outputs": [],
      "stateMutability": "payable",
      "type": "function"
    },
    {
      "inputs": [
        {
          "internalType": "address",
          "name": "token",
          "type": "address"
        },
        {
          "internalType": "uint256",
          "name": "value",
          "type": "uint256"
        },
        {
          "internalType": "uint256",
          "name": "deadline",
          "type": "uint256"
        },
        {
          "internalType": "uint8",
          "name": "v",
          "type": "uint8"
        },
        {
          "internalType": "bytes32",
          "name": "r",
          "type": "bytes32"
        },
        {
          "internalType": "bytes32",
          "name": "s",
          "type": "bytes32"
        }
      ],
      "name": "selfPermitIfNecessary",
      "outputs": [],
      "stateMutability": "payable",
      "type": "function"
    },
    {
      "inputs": [
        {
          "internalType": "address",
          "name": "token",
          "type": "address"
        },
        {
          "internalType": "uint256",
          "name": "amountMinimum",
          "type": "uint256"
        },
        {
          "internalType": "address",
          "name": "recipient",
          "type": "address"
        }
      ],
      "name": "sweepToken",
      "outputs": [],
      "stateMutability": "payable",
      "type": "function"
    },
    {
      "inputs": [
        {
          "internalType": "address",
          "name": "token",
          "type": "address"
        },
        {
          "internalType": "uint256",
          "name": "amountMinimum",
          "type": "uint256"
        },
        {
          "internalType": "address",
          "name": "recipient",
          "type": "address"
        },
        {
          "internalType": "uint256",
          "name": "feeBips",
          "type": "uint256"
        },
        {
          "internalType": "address",
          "name": "feeRecipient",
          "type": "address"
        }
      ],
      "name": "sweepTokenWithFee",
      "outputs": [],
      "stateMutability": "payable",
      "type": "function"
    },
    {
      "inputs": [
        {
          "internalType": "int256",
          "name": "amount0Delta",
          "type": "int256"
        },
        {
          "internalType": "int256",
          "name": "amount1Delta",
          "type": "int256"
        },
        {
          "internalType": "bytes",
          "name": "_data",
          "type": "bytes"
        }
      ],
      "name": "uniswapV3SwapCallback",
      "outputs": [],
      "stateMutability": "nonpayable",
      "type": "function"
    },
    {
      "inputs": [
        {
          "internalType": "uint256",
          "name": "amountMinimum",
          "type": "uint256"
        },
        {
          "internalType": "address",
          "name": "recipient",
          "type": "address"
        }
      ],
      "name": "unwrapWETH9",
      "outputs": [],
      "stateMutability": "payable",
      "type": "function"
    },
    {
      "inputs": [
        {
          "internalType": "uint256",
          "name": "amountMinimum",
          "type": "uint256"
        },
        {
          "internalType": "address",
          "name": "recipient",
          "type": "address"
        },
        {
          "internalType": "uint256",
          "name": "feeBips",
          "type": "uint256"
        },
        {
          "internalType": "address",
          "name": "feeRecipient",
          "type": "address"
        }
      ],
      "name": "unwrapWETH9WithFee",
      "outputs": [],
      "stateMutability": "payable",
      "type": "function"
    },
    {
      "stateMutability": "payable",
      "type": "receive"
    }
  ],
  "bytecode": "0x60c06040526000196000553480156200001757600080fd5b50604051620028cd380380620028cd8339810160408190526200003a9162000076565b6001600160601b0319606092831b8116608052911b1660a052620000ad565b80516001600160a01b03811681146200007157600080fd5b919050565b6000806040838503121562000089578182fd5b620000948362000059565b9150620000a46020840162000059565b90509250929050565b60805160601c60a05160601c6127c4620001096000398061011252806104c752806105b2528061063f528061067f528061076a528061182f528061187552806118e9525080610c08528061110352806119c452506127c46000f3fe6080604052600436106101025760003560e01c8063c04b8d5911610095578063df2ab5bb11610064578063df2ab5bb14610284578063e0e189a014610297578063f28c0498146102aa578063f3995c67146102bd578063fa461e33146102d057610172565b8063c04b8d5914610236578063c2e3140a14610249578063c45a01551461025c578063db3e21981461027157610172565b80634aa4a4fc116100d15780634aa4a4fc146101ce5780639b2c0a37146101f0578063a4a78f0c14610203578063ac9650d81461021657610172565b806312210e8a14610177578063414bf3891461017f5780634659a494146101a857806349404b7c146101bb57610172565b3661017257336001600160a01b037f00000000000000000000000000000000000000000000000000000000000000001614610170576040805162461bcd60e51b81526020600482015260096024820152684e6f7420574554483960b81b604482015290519081900360640190fd5b005b600080fd5b6101706102f0565b61019261018d366004612359565b610302565b60405161019f91906126b2565b60405180910390f35b6101706101b63660046120d7565b610429565b6101706101c9366004612460565b6104c3565b3480156101da57600080fd5b506101e361063d565b60405161019f919061254f565b6101706101fe36600461248f565b610661565b6101706102113660046120d7565b61082d565b610229610224366004612137565b6108be565b60405161019f91906125a9565b6101926102443660046122ae565b6109fe565b6101706102573660046120d7565b610b77565b34801561026857600080fd5b506101e3610c06565b61019261027f366004612359565b610c2a565b610170610292366004612038565b610d51565b6101706102a5366004612079565b610e2f565b6101926102b8366004612375565b610f56565b6101706102cb3660046120d7565b61104c565b3480156102dc57600080fd5b506101706102eb3660046121c9565b6110be565b47156103005761030033476111d1565b565b60008160800135806103126112c0565b111561035b576040805162461bcd60e51b8152602060048201526013602482015272151c985b9cd858dd1a5bdb881d1bdbc81bdb19606a1b604482015290519081900360640190fd5b6103f460a08401356103736080860160608701612015565b610384610100870160e08801612015565b604080518082019091528061039c60208a018a612015565b6103ac60608b0160408c0161243d565b6103bc60408c0160208d01612015565b6040516020016103ce93929190612504565b6040516020818303038152906040528152602001336001600160a01b03168152506112c4565b91508260c001358210156104235760405162461bcd60e51b815260040161041a90612648565b60405180910390fd5b50919050565b604080516323f2ebc360e21b815233600482015230602482015260448101879052606481018690526001608482015260ff851660a482015260c4810184905260e4810183905290516001600160a01b03881691638fcbaf0c9161010480830192600092919082900301818387803b1580156104a357600080fd5b505af11580156104b7573d6000803e3d6000fd5b50505050505050505050565b60007f00000000000000000000000000000000000000000000000000000000000000006001600160a01b03166370a08231306040518263ffffffff1660e01b815260040180826001600160a01b0316815260200191505060206040518083038186803b15801561053257600080fd5b505afa158015610546573d6000803e3d6000fd5b505050506040513d602081101561055c57600080fd5b50519050828110156105aa576040805162461bcd60e51b8152602060048201526012602482015271496e73756666696369656e7420574554483960701b604482015290519081900360640190fd5b8015610638577f00000000000000000000000000000000000000000000000000000000000000006001600160a01b0316632e1a7d4d826040518263ffffffff1660e01b815260040180828152602001915050600060405180830381600087803b15801561061657600080fd5b505af115801561062a573d6000803e3d6000fd5b5050505061063882826111d1565b505050565b7f000000000000000000000000000000000000000000000000000000000000000081565b600082118015610672575060648211155b61067b57600080fd5b60007f00000000000000000000000000000000000000000000000000000000000000006001600160a01b03166370a08231306040518263ffffffff1660e01b815260040180826001600160a01b0316815260200191505060206040518083038186803b1580156106ea57600080fd5b505afa1580156106fe573d6000803e3d6000fd5b505050506040513d602081101561071457600080fd5b5051905084811015610762576040805162461bcd60e51b8152602060048201526012602482015271496e73756666696369656e7420574554483960701b604482015290519081900360640190fd5b8015610826577f00000000000000000000000000000000000000000000000000000000000000006001600160a01b0316632e1a7d4d826040518263ffffffff1660e01b815260040180828152602001915050600060405180830381600087803b1580156107ce57600080fd5b505af11580156107e2573d6000803e3d6000fd5b5050505060006127106107fe858461141690919063ffffffff16565b8161080557fe5b04905080156108185761081883826111d1565b610824858284036111d1565b505b5050505050565b60408051636eb1769f60e11b81523360048201523060248201529051600019916001600160a01b0389169163dd62ed3e91604480820192602092909190829003018186803b15801561087e57600080fd5b505afa158015610892573d6000803e3d6000fd5b505050506040513d60208110156108a857600080fd5b5051101561082457610824868686868686610429565b60608167ffffffffffffffff811180156108d757600080fd5b5060405190808252806020026020018201604052801561090b57816020015b60608152602001906001900390816108f65790505b50905060005b828110156109f7576000803086868581811061092957fe5b905060200281019061093b91906126bb565b60405161094992919061253f565b600060405180830381855af49150503d8060008114610984576040519150601f19603f3d011682016040523d82523d6000602084013e610989565b606091505b5091509150816109d5576044815110156109a257600080fd5b600481019050808060200190518101906109bc9190612244565b60405162461bcd60e51b815260040161041a9190612609565b808484815181106109e257fe5b60209081029190910101525050600101610911565b5092915050565b6000816040015180610a0e6112c0565b1115610a57576040805162461bcd60e51b8152602060048201526013602482015272151c985b9cd858dd1a5bdb881d1bdbc81bdb19606a1b604482015290519081900360640190fd5b6040805180820190915260018152603160f81b60208201523390610a7a90611440565b6000610a8985600001516114e9565b9050610aad604051806040016040528060018152602001601960f91b815250611440565b610af7856060015182610ac4578660200151610ac6565b305b60006040518060400160405280610ae08b600001516114f5565b8152602001876001600160a01b03168152506112c4565b60608601528015610b17578451309250610b1090611504565b8552610b24565b8460600151935050610b2a565b50610a7a565b610b4c604051806040016040528060018152602001600d60fa1b815250611440565b8360800151831015610b705760405162461bcd60e51b815260040161041a90612648565b5050919050565b60408051636eb1769f60e11b8152336004820152306024820152905186916001600160a01b0389169163dd62ed3e91604480820192602092909190829003018186803b158015610bc657600080fd5b505afa158015610bda573d6000803e3d6000fd5b505050506040513d6020811015610bf057600080fd5b505110156108245761082486868686868661104c565b7f000000000000000000000000000000000000000000000000000000000000000081565b6000816080013580610c3a6112c0565b1115610c83576040805162461bcd60e51b8152602060048201526013602482015272151c985b9cd858dd1a5bdb881d1bdbc81bdb19606a1b604482015290519081900360640190fd5b610d1f60a0840135610c9b6080860160608701612015565b610cac610100870160e08801612015565b6040518060400160405280886020016020810190610cca9190612015565b610cda60608b0160408c0161243d565b610ce760208c018c612015565b604051602001610cf993929190612504565b6040516020818303038152906040528152602001336001600160a01b031681525061151b565b91508260c00135821115610d455760405162461bcd60e51b815260040161041a9061261c565b50600019600055919050565b6000836001600160a01b03166370a08231306040518263ffffffff1660e01b815260040180826001600160a01b0316815260200191505060206040518083038186803b158015610da057600080fd5b505afa158015610db4573d6000803e3d6000fd5b505050506040513d6020811015610dca57600080fd5b5051905082811015610e18576040805162461bcd60e51b815260206004820152601260248201527124b739bab33334b1b4b2b73a103a37b5b2b760711b604482015290519081900360640190fd5b8015610e2957610e29848383611696565b50505050565b600082118015610e40575060648211155b610e4957600080fd5b6000856001600160a01b03166370a08231306040518263ffffffff1660e01b815260040180826001600160a01b0316815260200191505060206040518083038186803b158015610e9857600080fd5b505afa158015610eac573d6000803e3d6000fd5b505050506040513d6020811015610ec257600080fd5b5051905084811015610f10576040805162461bcd60e51b815260206004820152601260248201527124b739bab33334b1b4b2b73a103a37b5b2b760711b604482015290519081900360640190fd5b8015610824576000612710610f258386611416565b81610f2c57fe5b0490508015610f4057610f40878483611696565b610f4d8786838503611696565b50505050505050565b6000816040013580610f666112c0565b1115610faf576040805162461bcd60e51b8152602060048201526013602482015272151c985b9cd858dd1a5bdb881d1bdbc81bdb19606a1b604482015290519081900360640190fd5b6110226060840135610fc76040860160208701612015565b6040805180820190915260009080610fdf89806126bb565b8080601f0160208091040260200160405190810160405280939291908181526020018383808284376000920191909152505050908252503360209091015261151b565b5060005491508260800135821115610d455760405162461bcd60e51b815260040161041a9061261c565b6040805163d505accf60e01b8152336004820152306024820152604481018790526064810186905260ff8516608482015260a4810184905260c4810183905290516001600160a01b0388169163d505accf9160e480830192600092919082900301818387803b1580156104a357600080fd5b60008413806110cd5750600083135b6110d657600080fd5b60006110e4828401846123ad565b905060008060006110f884600001516117dd565b92509250925061112a7f000000000000000000000000000000000000000000000000000000000000000084848461180e565b5060008060008a1361115157846001600160a01b0316846001600160a01b03161089611168565b836001600160a01b0316856001600160a01b0316108a5b91509150811561118757611182858760200151338461182d565b6104b7565b8551611192906114e9565b156111b75785516111a290611504565b86526111b1813360008961151b565b506104b7565b806000819055508394506104b7858760200151338461182d565b604080516000808252602082019092526001600160a01b0384169083906040518082805190602001908083835b6020831061121d5780518252601f1990920191602091820191016111fe565b6001836020036101000a03801982511681845116808217855250505050505090500191505060006040518083038185875af1925050503d806000811461127f576040519150601f19603f3d011682016040523d82523d6000602084013e611284565b606091505b5050905080610638576040805162461bcd60e51b815260206004820152600360248201526253544560e81b604482015290519081900360640190fd5b4290565b60006001600160a01b0384166112d8573093505b60008060006112ea85600001516117dd565b919450925090506001600160a01b038083169084161060008061130e8686866119bd565b6001600160a01b031663128acb088b856113278f6119fb565b6001600160a01b038e161561133c578d611362565b8761135b5773fffd8963efd1fc6a506488495d951d5263988d25611362565b6401000276a45b8d6040516020016113739190612675565b6040516020818303038152906040526040518663ffffffff1660e01b81526004016113a2959493929190612563565b6040805180830381600087803b1580156113bb57600080fd5b505af11580156113cf573d6000803e3d6000fd5b505050506040513d601f19601f820116820180604052508101906113f391906121a6565b91509150826114025781611404565b805b6000039b9a5050505050505050505050565b60008215806114315750508181028183828161142e57fe5b04145b61143a57600080fd5b92915050565b6114e6816040516024018080602001828103825283818151815260200191508051906020019080838360005b8381101561148457818101518382015260200161146c565b50505050905090810190601f1680156114b15780820380516001836020036101000a031916815260200191505b5060408051601f198184030181529190526020810180516001600160e01b031663104c13eb60e21b1790529250611a11915050565b50565b8051604211155b919050565b606061143a826000602b611a32565b805160609061143a90839060179060161901611a32565b60006001600160a01b03841661152f573093505b600080600061154185600001516117dd565b919450925090506001600160a01b03808416908316106000806115658587866119bd565b6001600160a01b031663128acb088b8561157e8f6119fb565b6000036001600160a01b038e1615611596578d6115bc565b876115b55773fffd8963efd1fc6a506488495d951d5263988d256115bc565b6401000276a45b8d6040516020016115cd9190612675565b6040516020818303038152906040526040518663ffffffff1660e01b81526004016115fc959493929190612563565b6040805180830381600087803b15801561161557600080fd5b505af1158015611629573d6000803e3d6000fd5b505050506040513d601f19601f8201168201806040525081019061164d91906121a6565b91509150600083611662578183600003611668565b82826000035b90985090506001600160a01b038a16611687578b811461168757600080fd5b50505050505050949350505050565b604080516001600160a01b038481166024830152604480830185905283518084039091018152606490920183526020820180516001600160e01b031663a9059cbb60e01b1781529251825160009485949389169392918291908083835b602083106117125780518252601f1990920191602091820191016116f3565b6001836020036101000a0380198251168184511680821785525050505050509050019150506000604051808303816000865af19150503d8060008114611774576040519150601f19603f3d011682016040523d82523d6000602084013e611779565b606091505b50915091508180156117a75750805115806117a757508080602001905160208110156117a457600080fd5b50515b610826576040805162461bcd60e51b815260206004820152600260248201526114d560f21b604482015290519081900360640190fd5b600080806117eb8482611b83565b92506117f8846014611c33565b9050611805846017611b83565b91509193909250565b60006118248561181f868686611cda565b611d30565b95945050505050565b7f00000000000000000000000000000000000000000000000000000000000000006001600160a01b0316846001600160a01b031614801561186e5750804710155b15611990577f00000000000000000000000000000000000000000000000000000000000000006001600160a01b031663d0e30db0826040518263ffffffff1660e01b81526004016000604051808303818588803b1580156118ce57600080fd5b505af11580156118e2573d6000803e3d6000fd5b50505050507f00000000000000000000000000000000000000000000000000000000000000006001600160a01b031663a9059cbb83836040518363ffffffff1660e01b815260040180836001600160a01b0316815260200182815260200192505050602060405180830381600087803b15801561195e57600080fd5b505af1158015611972573d6000803e3d6000fd5b505050506040513d602081101561198857600080fd5b50610e299050565b6001600160a01b0383163014156119b1576119ac848383611696565b610e29565b610e2984848484611d53565b60006119f37f00000000000000000000000000000000000000000000000000000000000000006119ee868686611cda565b611ea3565b949350505050565b6000600160ff1b8210611a0d57600080fd5b5090565b80516a636f6e736f6c652e6c6f67602083016000808483855afa5050505050565b60608182601f011015611a7d576040805162461bcd60e51b815260206004820152600e60248201526d736c6963655f6f766572666c6f7760901b604482015290519081900360640190fd5b828284011015611ac5576040805162461bcd60e51b815260206004820152600e60248201526d736c6963655f6f766572666c6f7760901b604482015290519081900360640190fd5b81830184511015611b11576040805162461bcd60e51b8152602060048201526011602482015270736c6963655f6f75744f66426f756e647360781b604482015290519081900360640190fd5b606082158015611b305760405191506000825260208201604052611b7a565b6040519150601f8416801560200281840101858101878315602002848b0101015b81831015611b69578051835260209283019201611b51565b5050858452601f01601f1916604052505b50949350505050565b600081826014011015611bd2576040805162461bcd60e51b8152602060048201526012602482015271746f416464726573735f6f766572666c6f7760701b604482015290519081900360640190fd5b8160140183511015611c23576040805162461bcd60e51b8152602060048201526015602482015274746f416464726573735f6f75744f66426f756e647360581b604482015290519081900360640190fd5b500160200151600160601b900490565b600081826003011015611c81576040805162461bcd60e51b8152602060048201526011602482015270746f55696e7432345f6f766572666c6f7760781b604482015290519081900360640190fd5b8160030183511015611cd1576040805162461bcd60e51b8152602060048201526014602482015273746f55696e7432345f6f75744f66426f756e647360601b604482015290519081900360640190fd5b50016003015190565b611ce2611f87565b826001600160a01b0316846001600160a01b03161115611d00579192915b50604080516060810182526001600160a01b03948516815292909316602083015262ffffff169181019190915290565b6000611d3c8383611ea3565b9050336001600160a01b0382161461143a57600080fd5b604080516001600160a01b0385811660248301528481166044830152606480830185905283518084039091018152608490920183526020820180516001600160e01b03166323b872dd60e01b178152925182516000948594938a169392918291908083835b60208310611dd75780518252601f199092019160209182019101611db8565b6001836020036101000a0380198251168184511680821785525050505050509050019150506000604051808303816000865af19150503d8060008114611e39576040519150601f19603f3d011682016040523d82523d6000602084013e611e3e565b606091505b5091509150818015611e6c575080511580611e6c5750808060200190516020811015611e6957600080fd5b50515b610824576040805162461bcd60e51b815260206004820152600360248201526229aa2360e91b604482015290519081900360640190fd5b600081602001516001600160a01b031682600001516001600160a01b031610611ecb57600080fd5b50805160208083015160409384015184516001600160a01b0394851681850152939091168385015262ffffff166060808401919091528351808403820181526080840185528051908301206001600160f81b031960a085015294901b6bffffffffffffffffffffffff191660a183015260b58201939093527fe7dac78d4d759ab9a7a4d3963f93db5fa046c8aba3d385af3a9e981a707722c860d5808301919091528251808303909101815260f5909101909152805191012090565b604080516060810182526000808252602082018190529181019190915290565b80356114f081612779565b600082601f830112611fc2578081fd5b8135611fd5611fd08261272b565b612707565b818152846020838601011115611fe9578283fd5b816020850160208301379081016020019190915292915050565b60006101008284031215610423578081fd5b600060208284031215612026578081fd5b813561203181612779565b9392505050565b60008060006060848603121561204c578182fd5b833561205781612779565b925060208401359150604084013561206e81612779565b809150509250925092565b600080600080600060a08688031215612090578081fd5b853561209b81612779565b94506020860135935060408601356120b281612779565b92506060860135915060808601356120c981612779565b809150509295509295909350565b60008060008060008060c087890312156120ef578081fd5b86356120fa81612779565b95506020870135945060408701359350606087013560ff8116811461211d578182fd5b9598949750929560808101359460a0909101359350915050565b60008060208385031215612149578182fd5b823567ffffffffffffffff80821115612160578384fd5b818501915085601f830112612173578384fd5b813581811115612181578485fd5b8660208083028501011115612194578485fd5b60209290920196919550909350505050565b600080604083850312156121b8578182fd5b505080516020909101519092909150565b600080600080606085870312156121de578182fd5b8435935060208501359250604085013567ffffffffffffffff80821115612203578384fd5b818701915087601f830112612216578384fd5b813581811115612224578485fd5b886020828501011115612235578485fd5b95989497505060200194505050565b600060208284031215612255578081fd5b815167ffffffffffffffff81111561226b578182fd5b8201601f8101841361227b578182fd5b8051612289611fd08261272b565b81815285602083850101111561229d578384fd5b61182482602083016020860161274d565b6000602082840312156122bf578081fd5b813567ffffffffffffffff808211156122d6578283fd5b9083019060a082860312156122e9578283fd5b60405160a0810181811083821117156122fe57fe5b60405282358281111561230f578485fd5b61231b87828601611fb2565b82525061232a60208401611fa7565b602082015260408301356040820152606083013560608201526080830135608082015280935050505092915050565b6000610100828403121561236b578081fd5b6120318383612003565b600060208284031215612386578081fd5b813567ffffffffffffffff81111561239c578182fd5b820160a08185031215612031578182fd5b6000602082840312156123be578081fd5b813567ffffffffffffffff808211156123d5578283fd5b90830190604082860312156123e8578283fd5b6040516040810181811083821117156123fd57fe5b60405282358281111561240e578485fd5b61241a87828601611fb2565b8252506020830135925061242d83612779565b6020810192909252509392505050565b60006020828403121561244e578081fd5b813562ffffff81168114612031578182fd5b60008060408385031215612472578182fd5b82359150602083013561248481612779565b809150509250929050565b600080600080608085870312156124a4578182fd5b8435935060208501356124b681612779565b92506040850135915060608501356124cd81612779565b939692955090935050565b600081518084526124f081602086016020860161274d565b601f01601f19169290920160200192915050565b606093841b6bffffffffffffffffffffffff19908116825260e89390931b6001600160e81b0319166014820152921b166017820152602b0190565b6000828483379101908152919050565b6001600160a01b0391909116815260200190565b6001600160a01b0386811682528515156020830152604082018590528316606082015260a06080820181905260009061259e908301846124d8565b979650505050505050565b6000602080830181845280855180835260408601915060408482028701019250838701855b828110156125fc57603f198886030184526125ea8583516124d8565b945092850192908501906001016125ce565b5092979650505050505050565b60006020825261203160208301846124d8565b602080825260129082015271151bdbc81b5d58da081c995c5d595cdd195960721b604082015260600190565b602080825260139082015272151bdbc81b1a5d1d1b19481c9958d95a5d9959606a1b604082015260600190565b60006020825282516040602084015261269160608401826124d8565b602094909401516001600160a01b0316604093909301929092525090919050565b90815260200190565b6000808335601e198436030181126126d1578283fd5b83018035915067ffffffffffffffff8211156126eb578283fd5b60200191503681900382131561270057600080fd5b9250929050565b60405181810167ffffffffffffffff8111828210171561272357fe5b604052919050565b600067ffffffffffffffff82111561273f57fe5b50601f01601f191660200190565b60005b83811015612768578181015183820152602001612750565b83811115610e295750506000910152565b6001600160a01b03811681146114e657600080fdfea264697066735822122090d6b084dfec22afe812d82bc14b7a96158ff4df2edddd72be8e97e1259199d364736f6c63430007060033",
  "linkReferences": {},
  "deployedLinkReferences": {}
}