{
  "_format": "hh-sol-artifact-1",
  "contractName": "StakeLPNFT",
  "sourceName": "contracts/CoinSwitch.sol",
  "abi": [
    {
      "inputs": [
        {
          "internalType": "address",
          "name": "_admin",
          "type": "address"
        },
        {
          "internalType": "contract INonfungiblePositionManager",
          "name": "_nftPositionManager",
          "type": "address"
        }
      ],
      "stateMutability": "nonpayable",
      "type": "constructor"
    },
    {
      "anonymous": false,
      "inputs": [
        {
          "indexed": true,
          "internalType": "address",
          "name": "owner",
          "type": "address"
        },
        {
          "indexed": true,
          "internalType": "address",
          "name": "spender",
          "type": "address"
        },
        {
          "indexed": false,
          "internalType": "uint256",
          "name": "value",
          "type": "uint256"
        }
      ],
      "name": "Approval",
      "type": "event"
    },
    {
      "anonymous": false,
      "inputs": [
        {
          "indexed": true,
          "internalType": "address",
          "name": "previousOwner",
          "type": "address"
        },
        {
          "indexed": true,
          "internalType": "address",
          "name": "newOwner",
          "type": "address"
        }
      ],
      "name": "OwnershipTransferred",
      "type": "event"
    },
    {
      "anonymous": false,
      "inputs": [
        {
          "indexed": true,
          "internalType": "address",
          "name": "from",
          "type": "address"
        },
        {
          "indexed": true,
          "internalType": "address",
          "name": "to",
          "type": "address"
        },
        {
          "indexed": false,
          "internalType": "uint256",
          "name": "value",
          "type": "uint256"
        }
      ],
      "name": "Transfer",
      "type": "event"
    },
    {
      "inputs": [
        {
          "internalType": "uint256",
          "name": "",
          "type": "uint256"
        }
      ],
      "name": "LPDetails",
      "outputs": [
        {
          "internalType": "address",
          "name": "owner",
          "type": "address"
        },
        {
          "internalType": "uint256",
          "name": "unlockTime",
          "type": "uint256"
        }
      ],
      "stateMutability": "view",
      "type": "function"
    },
    {
      "inputs": [
        {
          "internalType": "address",
          "name": "owner",
          "type": "address"
        },
        {
          "internalType": "address",
          "name": "spender",
          "type": "address"
        }
      ],
      "name": "allowance",
      "outputs": [
        {
          "internalType": "uint256",
          "name": "",
          "type": "uint256"
        }
      ],
      "stateMutability": "view",
      "type": "function"
    },
    {
      "inputs": [
        {
          "internalType": "address",
          "name": "spender",
          "type": "address"
        },
        {
          "internalType": "uint256",
          "name": "amount",
          "type": "uint256"
        }
      ],
      "name": "approve",
      "outputs": [
        {
          "internalType": "bool",
          "name": "",
          "type": "bool"
        }
      ],
      "stateMutability": "nonpayable",
      "type": "function"
    },
    {
      "inputs": [
        {
          "internalType": "address",
          "name": "account",
          "type": "address"
        }
      ],
      "name": "balanceOf",
      "outputs": [
        {
          "internalType": "uint256",
          "name": "",
          "type": "uint256"
        }
      ],
      "stateMutability": "view",
      "type": "function"
    },
    {
      "inputs": [],
      "name": "decimals",
      "outputs": [
        {
          "internalType": "uint8",
          "name": "",
          "type": "uint8"
        }
      ],
      "stateMutability": "view",
      "type": "function"
    },
    {
      "inputs": [
        {
          "internalType": "address",
          "name": "spender",
          "type": "address"
        },
        {
          "internalType": "uint256",
          "name": "subtractedValue",
          "type": "uint256"
        }
      ],
      "name": "decreaseAllowance",
      "outputs": [
        {
          "internalType": "bool",
          "name": "",
          "type": "bool"
        }
      ],
      "stateMutability": "nonpayable",
      "type": "function"
    },
    {
      "inputs": [
        {
          "internalType": "uint160",
          "name": "_sqrtPriceX96",
          "type": "uint160"
        }
      ],
      "name": "getTick",
      "outputs": [
        {
          "internalType": "int24",
          "name": "tick",
          "type": "int24"
        }
      ],
      "stateMutability": "view",
      "type": "function"
    },
    {
      "inputs": [
        {
          "internalType": "address",
          "name": "spender",
          "type": "address"
        },
        {
          "internalType": "uint256",
          "name": "addedValue",
          "type": "uint256"
        }
      ],
      "name": "increaseAllowance",
      "outputs": [
        {
          "internalType": "bool",
          "name": "",
          "type": "bool"
        }
      ],
      "stateMutability": "nonpayable",
      "type": "function"
    },
    {
      "inputs": [],
      "name": "name",
      "outputs": [
        {
          "internalType": "string",
          "name": "",
          "type": "string"
        }
      ],
      "stateMutability": "view",
      "type": "function"
    },
    {
      "inputs": [
        {
          "internalType": "address",
          "name": "",
          "type": "address"
        },
        {
          "internalType": "address",
          "name": "",
          "type": "address"
        },
        {
          "internalType": "uint256",
          "name": "",
          "type": "uint256"
        },
        {
          "internalType": "bytes",
          "name": "",
          "type": "bytes"
        }
      ],
      "name": "onERC721Received",
      "outputs": [
        {
          "internalType": "bytes4",
          "name": "",
          "type": "bytes4"
        }
      ],
      "stateMutability": "nonpayable",
      "type": "function"
    },
    {
      "inputs": [],
      "name": "owner",
      "outputs": [
        {
          "internalType": "address",
          "name": "",
          "type": "address"
        }
      ],
      "stateMutability": "view",
      "type": "function"
    },
    {
      "inputs": [],
      "name": "renounceOwnership",
      "outputs": [],
      "stateMutability": "nonpayable",
      "type": "function"
    },
    {
      "inputs": [
        {
          "internalType": "uint256",
          "name": "_timePeriod",
          "type": "uint256"
        }
      ],
      "name": "setMinimumTimeForStake",
      "outputs": [],
      "stateMutability": "nonpayable",
      "type": "function"
    },
    {
      "inputs": [
        {
          "internalType": "uint256",
          "name": "_tokenId",
          "type": "uint256"
        }
      ],
      "name": "stake",
      "outputs": [],
      "stateMutability": "nonpayable",
      "type": "function"
    },
    {
      "inputs": [],
      "name": "symbol",
      "outputs": [
        {
          "internalType": "string",
          "name": "",
          "type": "string"
        }
      ],
      "stateMutability": "view",
      "type": "function"
    },
    {
      "inputs": [
        {
          "internalType": "uint256",
          "name": "tokenId",
          "type": "uint256"
        }
      ],
      "name": "tokenAmounts",
      "outputs": [
        {
          "internalType": "uint256",
          "name": "amountA",
          "type": "uint256"
        },
        {
          "internalType": "uint256",
          "name": "amountB",
          "type": "uint256"
        }
      ],
      "stateMutability": "view",
      "type": "function"
    },
    {
      "inputs": [],
      "name": "totalSupply",
      "outputs": [
        {
          "internalType": "uint256",
          "name": "",
          "type": "uint256"
        }
      ],
      "stateMutability": "view",
      "type": "function"
    },
    {
      "inputs": [
        {
          "internalType": "address",
          "name": "recipient",
          "type": "address"
        },
        {
          "internalType": "uint256",
          "name": "amount",
          "type": "uint256"
        }
      ],
      "name": "transfer",
      "outputs": [
        {
          "internalType": "bool",
          "name": "",
          "type": "bool"
        }
      ],
      "stateMutability": "nonpayable",
      "type": "function"
    },
    {
      "inputs": [
        {
          "internalType": "address",
          "name": "sender",
          "type": "address"
        },
        {
          "internalType": "address",
          "name": "recipient",
          "type": "address"
        },
        {
          "internalType": "uint256",
          "name": "amount",
          "type": "uint256"
        }
      ],
      "name": "transferFrom",
      "outputs": [
        {
          "internalType": "bool",
          "name": "",
          "type": "bool"
        }
      ],
      "stateMutability": "nonpayable",
      "type": "function"
    },
    {
      "inputs": [
        {
          "internalType": "address",
          "name": "newOwner",
          "type": "address"
        }
      ],
      "name": "transferOwnership",
      "outputs": [],
      "stateMutability": "nonpayable",
      "type": "function"
    },
    {
      "inputs": [
        {
          "internalType": "uint256",
          "name": "_tokenId",
          "type": "uint256"
        }
      ],
      "name": "unStake",
      "outputs": [],
      "stateMutability": "nonpayable",
      "type": "function"
    }
  ],
  "bytecode": "0x6080604052600880546001600160a01b0319166c02027e72f1f1281308800000001790553480156200003057600080fd5b5060405162001f1438038062001f14833981810160405260408110156200005657600080fd5b508051602091820151604080518082018252600681526514995dd85c9960d21b81860190815282518084019093526003808452621495d160ea1b968401969096528151949593949193620000ad9290919062000170565b508051620000c390600490602084019062000170565b50506005805460ff19166012179055506000620000df6200016c565b60058054610100600160a81b0319166101006001600160a01b03841690810291909117909155604051919250906000907f8be0079c531659141344cd1fd0a4f28419497f9722a3daafe3b4186f6b6457e0908290a3506001600655600780546001600160a01b039384166001600160a01b031991821617909155600b80549290931691161790556200021c565b3390565b828054600181600116156101000203166002900490600052602060002090601f016020900481019282620001a85760008555620001f3565b82601f10620001c357805160ff1916838001178555620001f3565b82800160010185558215620001f3579182015b82811115620001f3578251825591602001919060010190620001d6565b506200020192915062000205565b5090565b5b8082111562000201576000815560010162000206565b611ce8806200022c6000396000f3fe608060405234801561001057600080fd5b50600436106101375760003560e01c806370a08231116100b85780639ad280c01161007c5780639ad280c014610489578063a457c2d7146104bf578063a694fc3a146104eb578063a9059cbb14610508578063dd62ed3e14610534578063f2fde38b1461056257610137565b806370a0823114610412578063715018a614610438578063854518cf146104405780638da5cb5b1461045d57806395d89b411461048157610137565b80632203b882116100ff5780632203b8821461033357806323b872dd14610373578063313ce567146103a957806339509351146103c75780635d3eea91146103f357610137565b8063055206921461013c57806306fdde0314610179578063095ea7b3146101f6578063150b7a021461023657806318160ddd14610319575b600080fd5b6101626004803603602081101561015257600080fd5b50356001600160a01b0316610588565b6040805160029290920b8252519081900360200190f35b610181610599565b6040805160208082528351818301528351919283929083019185019080838360005b838110156101bb5781810151838201526020016101a3565b50505050905090810190601f1680156101e85780820380516001836020036101000a031916815260200191505b509250505060405180910390f35b6102226004803603604081101561020c57600080fd5b506001600160a01b03813516906020013561062f565b604080519115158252519081900360200190f35b6102fc6004803603608081101561024c57600080fd5b6001600160a01b0382358116926020810135909116916040820135919081019060808101606082013564010000000081111561028757600080fd5b82018360208201111561029957600080fd5b803590602001918460018302840111640100000000831117156102bb57600080fd5b91908080601f01602080910402602001604051908101604052809392919081815260200183838082843760009201919091525092955061064c945050505050565b604080516001600160e01b03199092168252519081900360200190f35b61032161065c565b60408051918252519081900360200190f35b6103506004803603602081101561034957600080fd5b5035610662565b604080516001600160a01b03909316835260208301919091528051918290030190f35b6102226004803603606081101561038957600080fd5b506001600160a01b03813581169160208101359091169060400135610687565b6103b161070f565b6040805160ff9092168252519081900360200190f35b610222600480360360408110156103dd57600080fd5b506001600160a01b038135169060200135610718565b6104106004803603602081101561040957600080fd5b5035610766565b005b6103216004803603602081101561042857600080fd5b50356001600160a01b03166108aa565b6104106108c5565b6104106004803603602081101561045657600080fd5b5035610989565b610465610a02565b604080516001600160a01b039092168252519081900360200190f35b610181610a16565b6104a66004803603602081101561049f57600080fd5b5035610a77565b6040805192835260208301919091528051918290030190f35b610222600480360360408110156104d557600080fd5b506001600160a01b038135169060200135610bac565b6104106004803603602081101561050157600080fd5b5035610c14565b6102226004803603604081101561051e57600080fd5b506001600160a01b038135169060200135610cd8565b6103216004803603604081101561054a57600080fd5b506001600160a01b0381358116916020013516610cec565b6104106004803603602081101561057857600080fd5b50356001600160a01b0316610d17565b600061059382610e37565b92915050565b60038054604080516020601f60026000196101006001881615020190951694909404938401819004810282018101909252828152606093909290918301828280156106255780601f106105fa57610100808354040283529160200191610625565b820191906000526020600020905b81548152906001019060200180831161060857829003601f168201915b5050505050905090565b600061064361063c611156565b848461115a565b50600192915050565b630a85bd0160e11b949350505050565b60025490565b600960205260009081526040902080546001909101546001600160a01b039091169082565b6000610694848484611246565b610704846106a0611156565b6106ff85604051806060016040528060288152602001611c1d602891396001600160a01b038a166000908152600160205260408120906106de611156565b6001600160a01b0316815260208101919091526040016000205491906113a1565b61115a565b5060015b9392505050565b60055460ff1690565b6000610643610725611156565b846106ff8560016000610736611156565b6001600160a01b03908116825260208083019390935260409182016000908120918c168152925290205490611438565b6000818152600960205260409020546001600160a01b031633146107d1576040805162461bcd60e51b815260206004820181905260248201527f596f7520617265206e6f7420746865206f776e6572206f6620746865204e4654604482015290519081900360640190fd5b6000818152600960205260409020600101544211610836576040805162461bcd60e51b815260206004820152601c60248201527f4e6f74207468652072696768742074696d6520746f206c656176652100000000604482015290519081900360640190fd5b600b5460408051632142170760e11b81523060048201523360248201526044810184905290516001600160a01b03909216916342842e0e9160648082019260009290919082900301818387803b15801561088f57600080fd5b505af11580156108a3573d6000803e3d6000fd5b5050505050565b6001600160a01b031660009081526020819052604090205490565b6108cd611156565b6001600160a01b03166108de610a02565b6001600160a01b031614610939576040805162461bcd60e51b815260206004820181905260248201527f4f776e61626c653a2063616c6c6572206973206e6f7420746865206f776e6572604482015290519081900360640190fd5b60055460405160009161010090046001600160a01b0316907f8be0079c531659141344cd1fd0a4f28419497f9722a3daafe3b4186f6b6457e0908390a360058054610100600160a81b0319169055565b610991611156565b6001600160a01b03166109a2610a02565b6001600160a01b0316146109fd576040805162461bcd60e51b815260206004820181905260248201527f4f776e61626c653a2063616c6c6572206973206e6f7420746865206f776e6572604482015290519081900360640190fd5b600a55565b60055461010090046001600160a01b031690565b60048054604080516020601f60026000196101006001881615020190951694909404938401819004810282018101909252828152606093909290918301828280156106255780601f106105fa57610100808354040283529160200191610625565b6000806000806000806000600b60009054906101000a90046001600160a01b03166001600160a01b03166399fbab88896040518263ffffffff1660e01b8152600401808281526020019150506101806040518083038186803b158015610adc57600080fd5b505afa158015610af0573d6000803e3d6000fd5b505050506040513d610180811015610b0757600080fd5b5060a081015160c082015160e0830151610140840151610160909401516008549399509197509550919350909150600090610b4a906001600160a01b0316610588565b9050610b70610b5882611492565b610b6188611492565b610b6a88611492565b876117c4565b60408051808201909152600b81526a079656820616d6f756e74360ac1b60208201529199509750610ba19089611860565b505050505050915091565b6000610643610bb9611156565b846106ff85604051806060016040528060258152602001611c8e6025913960016000610be3611156565b6001600160a01b03908116825260208083019390935260409182016000908120918d168152925290205491906113a1565b600080610c2083610a77565b600b5460408051632142170760e11b81523360048201523060248201526044810188905290519395509193506001600160a01b0316916342842e0e9160648082019260009290919082900301818387803b158015610c7d57600080fd5b505af1158015610c91573d6000803e3d6000fd5b505050600084815260096020526040902080546001600160a01b031916339081178255600a544201600190920191909155600284029150610cd29082611912565b50505050565b6000610643610ce5611156565b8484611246565b6001600160a01b03918216600090815260016020908152604080832093909416825291909152205490565b610d1f611156565b6001600160a01b0316610d30610a02565b6001600160a01b031614610d8b576040805162461bcd60e51b815260206004820181905260248201527f4f776e61626c653a2063616c6c6572206973206e6f7420746865206f776e6572604482015290519081900360640190fd5b6001600160a01b038116610dd05760405162461bcd60e51b8152600401808060200182810382526026815260200180611baf6026913960400191505060405180910390fd5b6005546040516001600160a01b0380841692610100900416907f8be0079c531659141344cd1fd0a4f28419497f9722a3daafe3b4186f6b6457e090600090a3600580546001600160a01b0390921661010002610100600160a81b0319909216919091179055565b60006401000276a36001600160a01b03831610801590610e73575073fffd8963efd1fc6a506488495d951d5263988d266001600160a01b038316105b610ea8576040805162461bcd60e51b81526020600482015260016024820152602960f91b604482015290519081900360640190fd5b640100000000600160c01b03602083901b166001600160801b03811160071b81811c67ffffffffffffffff811160061b90811c63ffffffff811160051b90811c61ffff811160041b90811c60ff8111600390811b91821c600f811160021b90811c918211600190811b92831c97908811961790941790921717909117171760808110610f3c57607f810383901c9150610f46565b80607f0383901b91505b908002607f81811c60ff83811c9190911c800280831c81831c1c800280841c81841c1c800280851c81851c1c800280861c81861c1c800280871c81871c1c800280881c81881c1c800280891c81891c1c8002808a1c818a1c1c8002808b1c818b1c1c8002808c1c818c1c1c8002808d1c818d1c1c8002808e1c9c81901c9c909c1c80029c8d901c9e9d607f198f0160401b60c09190911c678000000000000000161760c19b909b1c674000000000000000169a909a1760c29990991c672000000000000000169890981760c39790971c671000000000000000169690961760c49590951c670800000000000000169490941760c59390931c670400000000000000169290921760c69190911c670200000000000000161760c79190911c670100000000000000161760c89190911c6680000000000000161760c99190911c6640000000000000161760ca9190911c6620000000000000161760cb9190911c6610000000000000161760cc9190911c6608000000000000161760cd9190911c66040000000000001617693627a301d71055774c8581026f028f6481ab7f045a5af012a19d003aa9198101608090811d906fdb2df09e81959a81455e260799a0632f8301901d600281810b9083900b1461114757886001600160a01b031661112b82611492565b6001600160a01b031611156111405781611142565b805b611149565b815b9998505050505050505050565b3390565b6001600160a01b03831661119f5760405162461bcd60e51b8152600401808060200182810382526024815260200180611c6a6024913960400191505060405180910390fd5b6001600160a01b0382166111e45760405162461bcd60e51b8152600401808060200182810382526022815260200180611bd56022913960400191505060405180910390fd5b6001600160a01b03808416600081815260016020908152604080832094871680845294825291829020859055815185815291517f8c5be1e5ebec7d5bd14f71427d1e84f3dd0314c0f7b2291e5b200ac8c7c3b9259281900390910190a3505050565b6001600160a01b03831661128b5760405162461bcd60e51b8152600401808060200182810382526025815260200180611c456025913960400191505060405180910390fd5b6001600160a01b0382166112d05760405162461bcd60e51b8152600401808060200182810382526023815260200180611b8c6023913960400191505060405180910390fd5b6112db838383611a02565b61131881604051806060016040528060268152602001611bf7602691396001600160a01b03861660009081526020819052604090205491906113a1565b6001600160a01b0380851660009081526020819052604080822093909355908416815220546113479082611438565b6001600160a01b038084166000818152602081815260409182902094909455805185815290519193928716927fddf252ad1be2c89b69c2b068fc378daa952ba7f163c4a11628f55a4df523b3ef92918290030190a3505050565b600081848411156114305760405162461bcd60e51b81526004018080602001828103825283818151815260200191508051906020019080838360005b838110156113f55781810151838201526020016113dd565b50505050905090810190601f1680156114225780820380516001836020036101000a031916815260200191505b509250505060405180910390fd5b505050900390565b600082820183811015610708576040805162461bcd60e51b815260206004820152601b60248201527f536166654d6174683a206164646974696f6e206f766572666c6f770000000000604482015290519081900360640190fd5b60008060008360020b126114a9578260020b6114b1565b8260020b6000035b9050620d89e88111156114ef576040805162461bcd60e51b81526020600482015260016024820152601560fa1b604482015290519081900360640190fd5b60006001821661150357600160801b611515565b6ffffcb933bd6fad37aa2d162d1a5940015b70ffffffffffffffffffffffffffffffffff1690506002821615611549576ffff97272373d413259a46990580e213a0260801c5b6004821615611568576ffff2e50f5f656932ef12357cf3c7fdcc0260801c5b6008821615611587576fffe5caca7e10e4e61c3624eaa0941cd00260801c5b60108216156115a6576fffcb9843d60f6159c9db58835c9266440260801c5b60208216156115c5576fff973b41fa98c081472e6896dfb254c00260801c5b60408216156115e4576fff2ea16466c96a3843ec78b326b528610260801c5b6080821615611603576ffe5dee046a99a2a811c461f1969c30530260801c5b610100821615611623576ffcbe86c7900a88aedcffc83b479aa3a40260801c5b610200821615611643576ff987a7253ac413176f2b074cf7815e540260801c5b610400821615611663576ff3392b0822b70005940c7a398e4b70f30260801c5b610800821615611683576fe7159475a2c29b7443b29c7fa6e889d90260801c5b6110008216156116a3576fd097f3bdfd2022b8845ad8f792aa58250260801c5b6120008216156116c3576fa9f746462d870fdf8a65dc1f90e061e50260801c5b6140008216156116e3576f70d869a156d2a1b890bb3df62baf32f70260801c5b618000821615611703576f31be135f97d08fd981231505542fcfa60260801c5b62010000821615611724576f09aa508b5b7a84e1c677de54f3e99bc90260801c5b62020000821615611744576e5d6af8dedb81196699c329225ee6040260801c5b62040000821615611763576d2216e584f5fa1ea926041bedfe980260801c5b62080000821615611780576b048a170391f7dc42444e8fa20260801c5b60008460020b131561179b57806000198161179757fe5b0490505b6401000000008106156117af5760016117b2565b60005b60ff16602082901c0192505050919050565b600080836001600160a01b0316856001600160a01b031611156117e5579293925b846001600160a01b0316866001600160a01b03161161181057611809858585611a07565b9150611857565b836001600160a01b0316866001600160a01b0316101561184957611835868585611a07565b9150611842858785611a70565b9050611857565b611854858585611a70565b90505b94509492505050565b61190e82826040516024018080602001838152602001828103825284818151815260200191508051906020019080838360005b838110156118ab578181015183820152602001611893565b50505050905090810190601f1680156118d85780820380516001836020036101000a031916815260200191505b5060408051601f198184030181529190526020810180516001600160e01b0316632d839cb360e21b1790529350611abb92505050565b5050565b6001600160a01b03821661196d576040805162461bcd60e51b815260206004820152601f60248201527f45524332303a206d696e7420746f20746865207a65726f206164647265737300604482015290519081900360640190fd5b61197960008383611a02565b6002546119869082611438565b6002556001600160a01b0382166000908152602081905260409020546119ac9082611438565b6001600160a01b0383166000818152602081815260408083209490945583518581529351929391927fddf252ad1be2c89b69c2b068fc378daa952ba7f163c4a11628f55a4df523b3ef9281900390910190a35050565b505050565b6000826001600160a01b0316846001600160a01b03161115611a27579192915b836001600160a01b0316611a60606060ff16846001600160801b0316901b8686036001600160a01b0316866001600160a01b0316611adc565b81611a6757fe5b04949350505050565b6000826001600160a01b0316846001600160a01b03161115611a90579192915b611ab3826001600160801b03168585036001600160a01b0316600160601b611adc565b949350505050565b80516a636f6e736f6c652e6c6f67602083016000808483855afa5050505050565b6000808060001985870986860292508281109083900303905080611b125760008411611b0757600080fd5b508290049050610708565b808411611b1e57600080fd5b6000848688096000868103871696879004966002600389028118808a02820302808a02820302808a02820302808a02820302808a02820302808a0290910302918190038190046001018684119095039490940291909403929092049190911791909102915050939250505056fe45524332303a207472616e7366657220746f20746865207a65726f20616464726573734f776e61626c653a206e6577206f776e657220697320746865207a65726f206164647265737345524332303a20617070726f766520746f20746865207a65726f206164647265737345524332303a207472616e7366657220616d6f756e7420657863656564732062616c616e636545524332303a207472616e7366657220616d6f756e74206578636565647320616c6c6f77616e636545524332303a207472616e736665722066726f6d20746865207a65726f206164647265737345524332303a20617070726f76652066726f6d20746865207a65726f206164647265737345524332303a2064656372656173656420616c6c6f77616e63652062656c6f77207a65726fa2646970667358221220e285eeea9892be43c0b57fdef6d2963e8f1aa49b6c951dc7105f773cbeaf3f6e64736f6c63430007060033",
  "linkReferences": {},
  "deployedLinkReferences": {}
}